{"contracts/TriviaBattle.sol":{"TriviaBattle":{"abi":[{"inputs":[{"internalType":"address","name":"_usdcToken","type":"address"},{"internalType":"address","name":"_platformFeeRecipient","type":"address"}],"stateMutability":"nonpayable","type":"constructor"},{"inputs":[{"internalType":"address","name":"owner","type":"address"}],"name":"OwnableInvalidOwner","type":"error"},{"inputs":[{"internalType":"address","name":"account","type":"address"}],"name":"OwnableUnauthorizedAccount","type":"error"},{"inputs":[],"name":"ReentrancyGuardReentrantCall","type":"error"},{"anonymous":false,"inputs":[{"indexed":true,"internalType":"address","name":"previousOwner","type":"address"},{"indexed":true,"internalType":"address","name":"newOwner","type":"address"}],"name":"OwnershipTransferred","type":"event"},{"anonymous":false,"inputs":[{"indexed":false,"internalType":"uint256","name":"amount","type":"uint256"},{"indexed":true,"internalType":"address","name":"recipient","type":"address"}],"name":"PlatformFeeCollected","type":"event"},{"anonymous":false,"inputs":[{"indexed":true,"internalType":"address","name":"oldRecipient","type":"address"},{"indexed":true,"internalType":"address","name":"newRecipient","type":"address"}],"name":"PlatformFeeRecipientUpdated","type":"event"},{"anonymous":false,"inputs":[{"indexed":true,"internalType":"address","name":"player","type":"address"},{"indexed":false,"internalType":"uint256","name":"entryFee","type":"uint256"},{"indexed":false,"internalType":"uint256","name":"platformFee","type":"uint256"}],"name":"PlayerJoined","type":"event"},{"anonymous":false,"inputs":[{"indexed":false,"internalType":"uint256","name":"sessionId","type":"uint256"},{"indexed":false,"internalType":"address[]","name":"winners","type":"address[]"},{"indexed":false,"internalType":"uint256[]","name":"amounts","type":"uint256[]"}],"name":"PrizesDistributed","type":"event"},{"anonymous":false,"inputs":[{"indexed":true,"internalType":"address","name":"player","type":"address"},{"indexed":false,"internalType":"uint256","name":"score","type":"uint256"},{"indexed":false,"internalType":"uint256","name":"timestamp","type":"uint256"}],"name":"ScoreSubmitted","type":"event"},{"anonymous":false,"inputs":[{"indexed":false,"internalType":"uint256","name":"endTime","type":"uint256"}],"name":"SessionEnded","type":"event"},{"anonymous":false,"inputs":[{"indexed":false,"internalType":"uint256","name":"startTime","type":"uint256"},{"indexed":false,"internalType":"uint256","name":"duration","type":"uint256"}],"name":"SessionStarted","type":"event"},{"anonymous":false,"inputs":[{"indexed":true,"internalType":"string","name":"sessionId","type":"string"}],"name":"TrialPlayerJoined","type":"event"},{"anonymous":false,"inputs":[{"indexed":true,"internalType":"string","name":"sessionId","type":"string"},{"indexed":false,"internalType":"uint256","name":"score","type":"uint256"},{"indexed":false,"internalType":"uint256","name":"timestamp","type":"uint256"}],"name":"TrialScoreSubmitted","type":"event"},{"inputs":[],"name":"ENTRY_FEE","outputs":[{"internalType":"uint256","name":"","type":"uint256"}],"stateMutability":"view","type":"function"},{"inputs":[],"name":"PLATFORM_FEE_BPS","outputs":[{"internalType":"uint256","name":"","type":"uint256"}],"stateMutability":"view","type":"function"},{"inputs":[],"name":"currentSession","outputs":[{"internalType":"uint256","name":"startTime","type":"uint256"},{"internalType":"uint256","name":"endTime","type":"uint256"},{"internalType":"uint256","name":"prizePool","type":"uint256"},{"internalType":"uint256","name":"paidPlayerCount","type":"uint256"},{"internalType":"uint256","name":"trialPlayerCount","type":"uint256"},{"internalType":"bool","name":"isActive","type":"bool"},{"internalType":"bool","name":"prizesDistributed","type":"bool"}],"stateMutability":"view","type":"function"},{"inputs":[],"name":"distributePrizes","outputs":[],"stateMutability":"nonpayable","type":"function"},{"inputs":[],"name":"emergencyWithdraw","outputs":[],"stateMutability":"nonpayable","type":"function"},{"inputs":[{"internalType":"address","name":"player","type":"address"}],"name":"getPlayerScore","outputs":[{"internalType":"uint256","name":"score","type":"uint256"},{"internalType":"bool","name":"hasSubmitted","type":"bool"},{"internalType":"uint256","name":"submissionTime","type":"uint256"}],"stateMutability":"view","type":"function"},{"inputs":[],"name":"getSessionInfo","outputs":[{"internalType":"uint256","name":"startTime","type":"uint256"},{"internalType":"uint256","name":"endTime","type":"uint256"},{"internalType":"uint256","name":"prizePool","type":"uint256"},{"internalType":"uint256","name":"paidPlayerCount","type":"uint256"},{"internalType":"uint256","name":"trialPlayerCount","type":"uint256"},{"internalType":"bool","name":"isActive","type":"bool"},{"internalType":"bool","name":"prizesDistributed","type":"bool"}],"stateMutability":"view","type":"function"},{"inputs":[{"internalType":"string","name":"sessionId","type":"string"}],"name":"getTrialPlayerScore","outputs":[{"internalType":"uint256","name":"score","type":"uint256"},{"internalType":"bool","name":"hasSubmitted","type":"bool"},{"internalType":"uint256","name":"submissionTime","type":"uint256"}],"stateMutability":"view","type":"function"},{"inputs":[],"name":"joinBattle","outputs":[],"stateMutability":"nonpayable","type":"function"},{"inputs":[{"internalType":"string","name":"sessionId","type":"string"}],"name":"joinTrialBattle","outputs":[],"stateMutability":"nonpayable","type":"function"},{"inputs":[],"name":"owner","outputs":[{"internalType":"address","name":"","type":"address"}],"stateMutability":"view","type":"function"},{"inputs":[],"name":"platformFeeRecipient","outputs":[{"internalType":"address","name":"","type":"address"}],"stateMutability":"view","type":"function"},{"inputs":[],"name":"renounceOwnership","outputs":[],"stateMutability":"nonpayable","type":"function"},{"inputs":[{"internalType":"uint256","name":"duration","type":"uint256"}],"name":"startSession","outputs":[],"stateMutability":"nonpayable","type":"function"},{"inputs":[{"internalType":"uint256","name":"score","type":"uint256"}],"name":"submitScore","outputs":[],"stateMutability":"nonpayable","type":"function"},{"inputs":[{"internalType":"string","name":"sessionId","type":"string"},{"internalType":"uint256","name":"score","type":"uint256"}],"name":"submitTrialScore","outputs":[],"stateMutability":"nonpayable","type":"function"},{"inputs":[{"internalType":"address","name":"newOwner","type":"address"}],"name":"transferOwnership","outputs":[],"stateMutability":"nonpayable","type":"function"},{"inputs":[{"internalType":"address","name":"_newRecipient","type":"address"}],"name":"updatePlatformFeeRecipient","outputs":[],"stateMutability":"nonpayable","type":"function"},{"inputs":[],"name":"usdcToken","outputs":[{"internalType":"contract IERC20","name":"","type":"address"}],"stateMutability":"view","type":"function"}],"evm":{"bytecode":{"linkReferences":{},"object":"60a0346100ff57601f611e4538819003918201601f19168301916001600160401b038311848410176101045780849260409485528339810103126100ff57610052602061004b8361011a565b920161011a565b90600160005533156100e65760018054336001600160a01b031980831682179093556040519492936001600160a01b03939284929083167f8be0079c531659141344cd1fd0a4f28419497f9722a3daafe3b4186f6b6457e0600080a31660805216906002541617600255611d16908161012f8239608051818181610338015281816106c501528181611177015261187c0152f35b604051631e4fbdf760e01b815260006004820152602490fd5b600080fd5b634e487b7160e01b600052604160045260246000fd5b51906001600160a01b03821682036100ff5756fe608060408181526004918236101561001657600080fd5b600092833560e01c91826311eac8551461116357508163264eab0e14610e4a578163539aa77f14610e2e578163715018a614610dd15781637712761214610bc95781637ce52eb614610b3f5781638da5cb5b14610b165781639463b1cd146104ab57816395607a951461099d57816397794bf41461065a578163aff0b29714610560578163d082e23f1461050e578163d4166763146104ab578163db2e21bc146102fe578163e085c5391461029c578163eb13554f14610273578163f2fde38b146101df578163f5fe7f7114610116575063f6d361cc146100f657600080fd5b3461011257816003193601126101125760209051620f42408152f35b5080fd5b919050346101db5760203660031901126101db576001600160a01b038235818116939192908490036101d75761014a611c91565b8315610194575050600254826bffffffffffffffffffffffff60a01b821617600255167faf04973bb8004e313cfd09017b963bee1e6f6ffb9be88c07a0c5ce5fafe934038380a380f35b906020606492519162461bcd60e51b8352820152601960248201527f496e76616c696420726563697069656e742061646472657373000000000000006044820152fd5b8480fd5b8280fd5b919050346101db5760203660031901126101db576001600160a01b038235818116939192908490036101d757610213611c91565b831561025d575050600154826bffffffffffffffffffffffff60a01b821617600155167f8be0079c531659141344cd1fd0a4f28419497f9722a3daafe3b4186f6b6457e08380a380f35b51631e4fbdf760e01b8152908101849052602490fd5b50503461011257816003193601126101125760025490516001600160a01b039091168152602090f35b8391503461011257602036600319011261011257356001600160a01b03811690819003610112578183916102d69352600960205220611c64565b8051602080830151928401519351918252911515918101919091526040810191909152606090f35b919050346101db57826003193601126101db57610319611c91565b80516370a0823160e01b81523083820152602091906001600160a01b037f00000000000000000000000000000000000000000000000000000000000000008116908483602481855afa9283156104a157879361046e575b50821561043557600154845163a9059cbb60e01b815291166001600160a01b03168682019081526020810193909352918491839182908990829060400103925af190811561042b5785916103fe575b50156103c9578380f35b5162461bcd60e51b815291820152601160248201527015da5d1a191c985dd85b0819985a5b1959607a1b604482015260649150fd5b61041e9150833d8511610424575b61041681836113a8565b8101906115b2565b386103bf565b503d61040c565b82513d87823e3d90fd5b835162461bcd60e51b815280870186905260136024820152724e6f205553444320746f20776974686472617760681b6044820152606490fd5b9092508481813d831161049a575b61048681836113a8565b8101031261049657519138610370565b8680fd5b503d61047c565b84513d89823e3d90fd5b82843461050b578060031936011261050b57506003549154600554600654600754600880549551968752602087019490945260408601929092526060850152608084015260ff808316151560a085015291901c16151560c082015260e090f35b80fd5b9050823461050b57602036600319011261050b5781359067ffffffffffffffff821161050b57506105476102d6926020923691016111a6565b919082855193849283378101600a815203019020611c64565b919050346101db576020806003193601126106565782359261058660ff600854166111d9565b610594600354421015611219565b6105a1815442111561125b565b3385526009825282852054156106215750907fb7f20d0949b6a8bc59d005af4a52f7ff5d0cfcde9056fa556adb0e4b24dcb6d291338552600981526105ef60ff600184882001541615611c18565b3385526009815281852084815560018101600160ff19825416179055600242910155815193845242908401523392a280f35b915162461bcd60e51b8152918201526011602482015270141b185e595c881b9bdd081a9bda5b9959607a1b6044820152606490fd5b8380fd5b919050346101db57826003193601126101db57610675611cbd565b3383526020600981528184205461096b5760ff600854161561095e575b6106a060ff600854166111d9565b6106ae600354421015611219565b6106bb835442111561125b565b60018060a01b03807f000000000000000000000000000000000000000000000000000000000000000016938351946323b872dd60e01b865233828701526024903082880152620f42409687604482015285816064818c865af19081156108fe578991610941575b501561090857836002541680610834575b5050600554620ee098810180911161082257600555610753600654611297565b600655600b5491600160401b831015610811575050916161a89161079f8460017fc9b3932fab18f6ac6d50cac9682ed0c164ce31d2505f3571323a0cf5902dd68c979601600b556112bc565b819291549060031b9133831b921b19161790556107ff83516107c08161135a565b878152878382015287858201523388526009835284882090604060029180518455600184016020820151151560ff801983541691161790550151910155565b82519485528401523392a26001815580f35b634e487b7160e01b88526041905286fd5b50634e487b7160e01b87526011825286fd5b86519063a9059cbb60e01b82528482015285816044818c6161a89687898401525af19081156108fe5789916108e1575b501561089f577fcf1bd34e586f4e12ef1c4c84c337b05dd3f7fc5409e16c5fea9063524eb77022858560025416928851908152a23880610733565b855162461bcd60e51b8152808401869052601c818401527f506c6174666f726d20666565207472616e73666572206661696c6564000000006044820152606490fd5b6108f89150863d88116104245761041681836113a8565b38610864565b87513d8b823e3d90fd5b855162461bcd60e51b8152808401869052601481840152731554d110c81d1c985b9cd9995c8819985a5b195960621b6044820152606490fd5b6109589150863d88116104245761041681836113a8565b38610722565b6109666113ca565b610692565b905162461bcd60e51b815291820152600e60248201526d105b1c9958591e481a9bda5b995960921b6044820152606490fd5b83915034610112578260031936011261011257803567ffffffffffffffff81116101db576109ce90369083016111a6565b602494919435906109e360ff600854166111d9565b6109f1600354421015611219565b6109fe845442111561125b565b8251938187863784828101600a81526020968791030190205415610ad357507fbd6ca4b35a8166766cbd9f87f743edb98a23e3033ee5995dbe8f750279db9aae939495610a6460ff60018651858582378981878101600a81520301902001541615611c18565b828451838382378781858101600a8152030190205560018451838382378781858101600a81520301902001600160ff19825416179055835182828237600283820191600a835288814294030190200155818451928392833781018781520390209382519182524290820152a280f35b835162461bcd60e51b8152908101859052601760248201527f547269616c20706c61796572206e6f74206a6f696e65640000000000000000006044820152606490fd5b50503461011257816003193601126101125760015490516001600160a01b039091168152602090f35b919050346101db57826003193601126101db57610b5a611c91565b60ff60085416158015610bbf575b15610b855782610b76611cbd565b610b7e6115ca565b6001815580f35b906020606492519162461bcd60e51b8352820152601460248201527353657373696f6e207374696c6c2061637469766560601b6044820152fd5b5081544211610b68565b838334610112576020806003193601126101db57833590610be8611c91565b60ff60085416610d95578115610d5f5783600355838555600584600555846006558460075584600855600b5485600b5580610d1d575b50600c549185600c5582610c92575b50505042600355804201804211610c7f577fce6cbe3431d9ec9ac1a82a77a80bb9120b0250307afb3ed08873ea84c52b70c0939455600161ffff1960085416176008558151904282526020820152a180f35b634e487b7160e01b845260118552602484fd5b600c86527fdf6966c971051c3d54ec59162606531493a51404a002842f56009d7e5cf4a8c7928301925b838110610cc95750610c2d565b8087610cd760019354611309565b80610ce5575b505001610cbc565b601f8082118514610cfc57505081555b878a610cdd565b610d14908484528684209201871c8201858301611343565b81835555610cf5565b600b86527f0175b7a638427703f0dbe7bb9bbf987a2551717b34e79f33b5b1008d1fa01db9908101905b818110610d545750610c1e565b868155600101610d47565b825162461bcd60e51b8152602081870152601060248201526f24b73b30b634b210323ab930ba34b7b760811b6044820152606490fd5b825162461bcd60e51b8152602081870152601660248201527553657373696f6e20616c72656164792061637469766560501b6044820152606490fd5b833461050b578060031936011261050b57610dea611c91565b600180546001600160a01b0319811690915581906001600160a01b03167f8be0079c531659141344cd1fd0a4f28419497f9722a3daafe3b4186f6b6457e08280a380f35b5050346101125781600319360112610112576020905160fa8152f35b83833461011257602090816003193601126101db5767ffffffffffffffff9084358281116101d757610e7f90369087016111a6565b939092841561112b578251858582378281878101600a815203019020546110e85760ff60085416156110db575b610eba60ff600854166111d9565b610ec8600354421015611219565b610ed5875442111561125b565b610ee0600754611297565b600755600c54600160401b8110156110b5576001906001810180600c558110156110c857600c88527fdf6966c971051c3d54ec59162606531493a51404a002842f56009d7e5cf4a8c7019186116110b5579085939291610f408254611309565b601f811161107c575b508790601f861160011461100e57509084610fce93928991611003575b508560011b906000198760031b1c19161790555b825190610f868261135a565b878252878183015287848301528351908587833781868101600a81520301902090604060029180518455600184016020820151151560ff801983541691161790550151910155565b51928392833781018381520390207f93a1dfbf47c62f8886f8594f34973102da8b27ce9a0206226a3957bd9ee777d78280a280f35b905086013589610f66565b828952838920601f198716969594939290918a905b88821061106257505085610fce95969710611048575b5050600185811b019055610f7a565b870135600019600388901b60f8161c191690558880611039565b8983013584558a9750928301929185019190850190611023565b6110a590838a52848a20601f880160051c8101918689106110ab575b601f0160051c0190611343565b88610f49565b9091508190611098565b634e487b7160e01b875260418852602487fd5b634e487b7160e01b885260328952602488fd5b6110e36113ca565b610eac565b825162461bcd60e51b8152808801839052601760248201527f53657373696f6e20494420616c726561647920757365640000000000000000006044820152606490fd5b825162461bcd60e51b81528088018390526012602482015271125b9d985b1a59081cd95cdcda5bdb88125160721b6044820152606490fd5b8490346101125781600319360112610112577f00000000000000000000000000000000000000000000000000000000000000006001600160a01b03168152602090f35b9181601f840112156111d45782359167ffffffffffffffff83116111d457602083818601950101116111d457565b600080fd5b156111e057565b60405162461bcd60e51b815260206004820152601160248201527027379030b1ba34bb329039b2b9b9b4b7b760791b6044820152606490fd5b1561122057565b60405162461bcd60e51b815260206004820152601360248201527214d95cdcda5bdb881b9bdd081cdd185c9d1959606a1b6044820152606490fd5b1561126257565b60405162461bcd60e51b815260206004820152600d60248201526c14d95cdcda5bdb88195b991959609a1b6044820152606490fd5b60001981146112a65760010190565b634e487b7160e01b600052601160045260246000fd5b600b548110156112f357600b6000527f0175b7a638427703f0dbe7bb9bbf987a2551717b34e79f33b5b1008d1fa01db90190600090565b634e487b7160e01b600052603260045260246000fd5b90600182811c92168015611339575b602083101461132357565b634e487b7160e01b600052602260045260246000fd5b91607f1691611318565b81811061134e575050565b60008155600101611343565b6060810190811067ffffffffffffffff82111761137657604052565b634e487b7160e01b600052604160045260246000fd5b6040810190811067ffffffffffffffff82111761137657604052565b90601f8019910116810190811067ffffffffffffffff82111761137657604052565b60ff600854166115485760008060035580600455600581600555816006558160075581600855600b5482600b5580611506575b50600c549082600c558161147a575b50504260035561012c908142019081421161146657507fce6cbe3431d9ec9ac1a82a77a80bb9120b0250307afb3ed08873ea84c52b70c091604091600455600161ffff1960085416176008558151904282526020820152a1565b634e487b7160e01b81526011600452602490fd5b600c83527fdf6966c971051c3d54ec59162606531493a51404a002842f56009d7e5cf4a8c7918201915b8281106114b1575061140c565b80846114bf60019354611309565b806114cd575b5050016114a4565b601f80821185146114e457505081555b84386114c5565b6114fd90848452602084209201861c8201858301611343565b818355556114dd565b600b83527f0175b7a638427703f0dbe7bb9bbf987a2551717b34e79f33b5b1008d1fa01db9908101905b81811061153d57506113fd565b838155600101611530565b60405162461bcd60e51b815260206004820152601660248201527553657373696f6e20616c72656164792061637469766560501b6044820152606490fd5b67ffffffffffffffff81116113765760051b60200190565b80518210156112f35760209160051b010190565b908160209103126111d4575180151581036111d45790565b6008549060ff808360081c16611bd357600554908115611b9e57600b54916115f183611586565b946115ff60405196876113a8565b838652601f19938461161082611586565b0160005b818110611b79575050600093845b828110611af9575050508215611aba57506000939293925b600019948386018481116112a6578510156116fe5760005b8585038581116112a6578781019081116112a6578110156116f0576020908161167b828b61159e565b51015160018201908183116112a657600193611697838d61159e565b510151116116a7575b5001611652565b6116e9906116b5838c61159e565b518b6116cc856116c5858461159e565b519261159e565b526116d7848d61159e565b506116e2828d61159e565b528a61159e565b50386116a0565b50945060019093019261163a565b935090935093909360328402948486046032036112a657606495601e8602868104601e036112a657600f8702878104600f036112a6576064900496600581029081046005036112a657606490989796959498049561175b84611586565b9361176960405195866113a8565b80855261177581611586565b9787602087019901368a3761178982611586565b97611797604051998a6113a8565b8289526117a383611586565b013660208a013760009a60005b83811080611ab0575b156119bf576000816119205750878d8a8c9d9e9f8060649d9e9d8c049d61180e958f9461180894611802915b6001600160a01b03906117f9908c9061159e565b5151169261159e565b5261159e565b52611297565b988061182a575b5061181f90611297565b9b9a9998979b6117b0565b61187660206001600160a01b03611841858f61159e565b515116926040518093819263a9059cbb60e01b835260049687840160209093929193604081019460018060a01b031681520152565b038160007f00000000000000000000000000000000000000000000000000000000000000006001600160a01b03165af1908115611914576000916118f5575b50611815578d9060206040519162461bcd60e51b83528201526015602482015274141c9a5e99481d1c985b9cd9995c8819985a5b1959605a1b6044820152fd5b61190e915060203d6020116104245761041681836113a8565b386118b5565b6040513d6000823e3d90fd5b6001820361194c5750878d8a8c9d9e9f8060649d9e9d8b049d61180e958f9461180894611802916117e5565b600282036119755750878d8a8c9d9e9f80899e9d9e9d61180e958f9461180894611802916117e5565b6002198501908582116114665781156119ab57508d8a8c9d9e9f808c949d9e9d88049d61180e958f9461180894611802916117e5565b634e487b7160e01b81526012600452602490fd5b509a5050505050509350509061010061ffff1960085416176008556003546040519360608501918552606060208601525180915260808401919060005b818110611a915750505082810360408401526020808351928381520192019060005b818110611a7b5750505090807fec92dccf4a03653bc1a3d85019574bf62a659c47575779a889806684783b9e5c920390a17f6fec84c120bd2f6ca3672e03149381cb6bd1bf38d8442f598e8fa9820a53991e6020604051428152a1565b8251845260209384019390920191600101611a1e565b82516001600160a01b03168452602093840193909201916001016119fc565b50600a81106117b9565b9250505061010091925061ffff1916176008557f6fec84c120bd2f6ca3672e03149381cb6bd1bf38d8442f598e8fa9820a53991e6020604051428152a1565b611b02816112bc565b60018060a01b0391549060031b1c1680600052602060098152604060002084600182015416611b37575b505050600101611622565b916001939891611b7093549060405192611b508461138c565b8352820152611b5f828d61159e565b52611b6a818c61159e565b50611297565b95903880611b2c565b602090604051611b888161138c565b6000815282600081830152828c01015201611614565b60405162461bcd60e51b815260206004820152600d60248201526c139bc81c1c9a5e99481c1bdbdb609a1b6044820152606490fd5b60405162461bcd60e51b815260206004820152601a60248201527f5072697a657320616c72656164792064697374726962757465640000000000006044820152606490fd5b15611c1f57565b60405162461bcd60e51b815260206004820152601760248201527f53636f726520616c7265616479207375626d69747465640000000000000000006044820152606490fd5b90604051611c718161135a565b6040600282948054845260ff600182015416151560208501520154910152565b6001546001600160a01b03163303611ca557565b60405163118cdaa760e01b8152336004820152602490fd5b600260005414611cce576002600055565b604051633ee5aeb560e01b8152600490fdfea2646970667358221220f593049558a002417f3169261b769e986dbae75778d9b2eed142e71886f43f2c64736f6c63430008190033","opcodes":"PUSH1 0xA0 CALLVALUE PUSH2 0xFF JUMPI PUSH1 0x1F PUSH2 0x1E45 CODESIZE DUP2 SWAP1 SUB SWAP2 DUP3 ADD PUSH1 0x1F NOT AND DUP4 ADD SWAP2 PUSH1 0x1 PUSH1 0x1 PUSH1 0x40 SHL SUB DUP4 GT DUP5 DUP5 LT OR PUSH2 0x104 JUMPI DUP1 DUP5 SWAP3 PUSH1 0x40 SWAP5 DUP6 MSTORE DUP4 CODECOPY DUP2 ADD SUB SLT PUSH2 0xFF JUMPI PUSH2 0x52 PUSH1 0x20 PUSH2 0x4B DUP4 PUSH2 0x11A JUMP JUMPDEST SWAP3 ADD PUSH2 0x11A JUMP JUMPDEST SWAP1 PUSH1 0x1 PUSH1 0x0 SSTORE CALLER ISZERO PUSH2 0xE6 JUMPI PUSH1 0x1 DUP1 SLOAD CALLER PUSH1 0x1 PUSH1 0x1 PUSH1 0xA0 SHL SUB NOT DUP1 DUP4 AND DUP3 OR SWAP1 SWAP4 SSTORE PUSH1 0x40 MLOAD SWAP5 SWAP3 SWAP4 PUSH1 0x1 PUSH1 0x1 PUSH1 0xA0 SHL SUB SWAP4 SWAP3 DUP5 SWAP3 SWAP1 DUP4 AND PUSH32 0x8BE0079C531659141344CD1FD0A4F28419497F9722A3DAAFE3B4186F6B6457E0 PUSH1 0x0 DUP1 LOG3 AND PUSH1 0x80 MSTORE AND SWAP1 PUSH1 0x2 SLOAD AND OR PUSH1 0x2 SSTORE PUSH2 0x1D16 SWAP1 DUP2 PUSH2 0x12F DUP3 CODECOPY PUSH1 0x80 MLOAD DUP2 DUP2 DUP2 PUSH2 0x338 ADD MSTORE DUP2 DUP2 PUSH2 0x6C5 ADD MSTORE DUP2 DUP2 PUSH2 0x1177 ADD MSTORE PUSH2 0x187C ADD MSTORE RETURN JUMPDEST PUSH1 0x40 MLOAD PUSH4 0x1E4FBDF7 PUSH1 0xE0 SHL DUP2 MSTORE PUSH1 0x0 PUSH1 0x4 DUP3 ADD MSTORE PUSH1 0x24 SWAP1 REVERT JUMPDEST PUSH1 0x0 DUP1 REVERT JUMPDEST PUSH4 0x4E487B71 PUSH1 0xE0 SHL PUSH1 0x0 MSTORE PUSH1 0x41 PUSH1 0x4 MSTORE PUSH1 0x24 PUSH1 0x0 REVERT JUMPDEST MLOAD SWAP1 PUSH1 0x1 PUSH1 0x1 PUSH1 0xA0 SHL SUB DUP3 AND DUP3 SUB PUSH2 0xFF JUMPI JUMP INVALID PUSH1 0x80 PUSH1 0x40 DUP2 DUP2 MSTORE PUSH1 0x4 SWAP2 DUP3 CALLDATASIZE LT ISZERO PUSH2 0x16 JUMPI PUSH1 0x0 DUP1 REVERT JUMPDEST PUSH1 0x0 SWAP3 DUP4 CALLDATALOAD PUSH1 0xE0 SHR SWAP2 DUP3 PUSH4 0x11EAC855 EQ PUSH2 0x1163 JUMPI POP DUP2 PUSH4 0x264EAB0E EQ PUSH2 0xE4A JUMPI DUP2 PUSH4 0x539AA77F EQ PUSH2 0xE2E JUMPI DUP2 PUSH4 0x715018A6 EQ PUSH2 0xDD1 JUMPI DUP2 PUSH4 0x77127612 EQ PUSH2 0xBC9 JUMPI DUP2 PUSH4 0x7CE52EB6 EQ PUSH2 0xB3F JUMPI DUP2 PUSH4 0x8DA5CB5B EQ PUSH2 0xB16 JUMPI DUP2 PUSH4 0x9463B1CD EQ PUSH2 0x4AB JUMPI DUP2 PUSH4 0x95607A95 EQ PUSH2 0x99D JUMPI DUP2 PUSH4 0x97794BF4 EQ PUSH2 0x65A JUMPI DUP2 PUSH4 0xAFF0B297 EQ PUSH2 0x560 JUMPI DUP2 PUSH4 0xD082E23F EQ PUSH2 0x50E JUMPI DUP2 PUSH4 0xD4166763 EQ PUSH2 0x4AB JUMPI DUP2 PUSH4 0xDB2E21BC EQ PUSH2 0x2FE JUMPI DUP2 PUSH4 0xE085C539 EQ PUSH2 0x29C JUMPI DUP2 PUSH4 0xEB13554F EQ PUSH2 0x273 JUMPI DUP2 PUSH4 0xF2FDE38B EQ PUSH2 0x1DF JUMPI DUP2 PUSH4 0xF5FE7F71 EQ PUSH2 0x116 JUMPI POP PUSH4 0xF6D361CC EQ PUSH2 0xF6 JUMPI PUSH1 0x0 DUP1 REVERT JUMPDEST CALLVALUE PUSH2 0x112 JUMPI DUP2 PUSH1 0x3 NOT CALLDATASIZE ADD SLT PUSH2 0x112 JUMPI PUSH1 0x20 SWAP1 MLOAD PUSH3 0xF4240 DUP2 MSTORE RETURN JUMPDEST POP DUP1 REVERT JUMPDEST SWAP2 SWAP1 POP CALLVALUE PUSH2 0x1DB JUMPI PUSH1 0x20 CALLDATASIZE PUSH1 0x3 NOT ADD SLT PUSH2 0x1DB JUMPI PUSH1 0x1 PUSH1 0x1 PUSH1 0xA0 SHL SUB DUP3 CALLDATALOAD DUP2 DUP2 AND SWAP4 SWAP2 SWAP3 SWAP1 DUP5 SWAP1 SUB PUSH2 0x1D7 JUMPI PUSH2 0x14A PUSH2 0x1C91 JUMP JUMPDEST DUP4 ISZERO PUSH2 0x194 JUMPI POP POP PUSH1 0x2 SLOAD DUP3 PUSH12 0xFFFFFFFFFFFFFFFFFFFFFFFF PUSH1 0xA0 SHL DUP3 AND OR PUSH1 0x2 SSTORE AND PUSH32 0xAF04973BB8004E313CFD09017B963BEE1E6F6FFB9BE88C07A0C5CE5FAFE93403 DUP4 DUP1 LOG3 DUP1 RETURN JUMPDEST SWAP1 PUSH1 0x20 PUSH1 0x64 SWAP3 MLOAD SWAP2 PUSH3 0x461BCD PUSH1 0xE5 SHL DUP4 MSTORE DUP3 ADD MSTORE PUSH1 0x19 PUSH1 0x24 DUP3 ADD MSTORE PUSH32 0x496E76616C696420726563697069656E74206164647265737300000000000000 PUSH1 0x44 DUP3 ADD MSTORE REVERT JUMPDEST DUP5 DUP1 REVERT JUMPDEST DUP3 DUP1 REVERT JUMPDEST SWAP2 SWAP1 POP CALLVALUE PUSH2 0x1DB JUMPI PUSH1 0x20 CALLDATASIZE PUSH1 0x3 NOT ADD SLT PUSH2 0x1DB JUMPI PUSH1 0x1 PUSH1 0x1 PUSH1 0xA0 SHL SUB DUP3 CALLDATALOAD DUP2 DUP2 AND SWAP4 SWAP2 SWAP3 SWAP1 DUP5 SWAP1 SUB PUSH2 0x1D7 JUMPI PUSH2 0x213 PUSH2 0x1C91 JUMP JUMPDEST DUP4 ISZERO PUSH2 0x25D JUMPI POP POP PUSH1 0x1 SLOAD DUP3 PUSH12 0xFFFFFFFFFFFFFFFFFFFFFFFF PUSH1 0xA0 SHL DUP3 AND OR PUSH1 0x1 SSTORE AND PUSH32 0x8BE0079C531659141344CD1FD0A4F28419497F9722A3DAAFE3B4186F6B6457E0 DUP4 DUP1 LOG3 DUP1 RETURN JUMPDEST MLOAD PUSH4 0x1E4FBDF7 PUSH1 0xE0 SHL DUP2 MSTORE SWAP1 DUP2 ADD DUP5 SWAP1 MSTORE PUSH1 0x24 SWAP1 REVERT JUMPDEST POP POP CALLVALUE PUSH2 0x112 JUMPI DUP2 PUSH1 0x3 NOT CALLDATASIZE ADD SLT PUSH2 0x112 JUMPI PUSH1 0x2 SLOAD SWAP1 MLOAD PUSH1 0x1 PUSH1 0x1 PUSH1 0xA0 SHL SUB SWAP1 SWAP2 AND DUP2 MSTORE PUSH1 0x20 SWAP1 RETURN JUMPDEST DUP4 SWAP2 POP CALLVALUE PUSH2 0x112 JUMPI PUSH1 0x20 CALLDATASIZE PUSH1 0x3 NOT ADD SLT PUSH2 0x112 JUMPI CALLDATALOAD PUSH1 0x1 PUSH1 0x1 PUSH1 0xA0 SHL SUB DUP2 AND SWAP1 DUP2 SWAP1 SUB PUSH2 0x112 JUMPI DUP2 DUP4 SWAP2 PUSH2 0x2D6 SWAP4 MSTORE PUSH1 0x9 PUSH1 0x20 MSTORE KECCAK256 PUSH2 0x1C64 JUMP JUMPDEST DUP1 MLOAD PUSH1 0x20 DUP1 DUP4 ADD MLOAD SWAP3 DUP5 ADD MLOAD SWAP4 MLOAD SWAP2 DUP3 MSTORE SWAP2 ISZERO ISZERO SWAP2 DUP2 ADD SWAP2 SWAP1 SWAP2 MSTORE PUSH1 0x40 DUP2 ADD SWAP2 SWAP1 SWAP2 MSTORE PUSH1 0x60 SWAP1 RETURN JUMPDEST SWAP2 SWAP1 POP CALLVALUE PUSH2 0x1DB JUMPI DUP3 PUSH1 0x3 NOT CALLDATASIZE ADD SLT PUSH2 0x1DB JUMPI PUSH2 0x319 PUSH2 0x1C91 JUMP JUMPDEST DUP1 MLOAD PUSH4 0x70A08231 PUSH1 0xE0 SHL DUP2 MSTORE ADDRESS DUP4 DUP3 ADD MSTORE PUSH1 0x20 SWAP2 SWAP1 PUSH1 0x1 PUSH1 0x1 PUSH1 0xA0 SHL SUB PUSH32 0x0 DUP2 AND SWAP1 DUP5 DUP4 PUSH1 0x24 DUP2 DUP6 GAS STATICCALL SWAP3 DUP4 ISZERO PUSH2 0x4A1 JUMPI DUP8 SWAP4 PUSH2 0x46E JUMPI JUMPDEST POP DUP3 ISZERO PUSH2 0x435 JUMPI PUSH1 0x1 SLOAD DUP5 MLOAD PUSH4 0xA9059CBB PUSH1 0xE0 SHL DUP2 MSTORE SWAP2 AND PUSH1 0x1 PUSH1 0x1 PUSH1 0xA0 SHL SUB AND DUP7 DUP3 ADD SWAP1 DUP2 MSTORE PUSH1 0x20 DUP2 ADD SWAP4 SWAP1 SWAP4 MSTORE SWAP2 DUP5 SWAP2 DUP4 SWAP2 DUP3 SWAP1 DUP10 SWAP1 DUP3 SWAP1 PUSH1 0x40 ADD SUB SWAP3 GAS CALL SWAP1 DUP2 ISZERO PUSH2 0x42B JUMPI DUP6 SWAP2 PUSH2 0x3FE JUMPI JUMPDEST POP ISZERO PUSH2 0x3C9 JUMPI DUP4 DUP1 RETURN JUMPDEST MLOAD PUSH3 0x461BCD PUSH1 0xE5 SHL DUP2 MSTORE SWAP2 DUP3 ADD MSTORE PUSH1 0x11 PUSH1 0x24 DUP3 ADD MSTORE PUSH17 0x15DA5D1A191C985DD85B0819985A5B1959 PUSH1 0x7A SHL PUSH1 0x44 DUP3 ADD MSTORE PUSH1 0x64 SWAP2 POP REVERT JUMPDEST PUSH2 0x41E SWAP2 POP DUP4 RETURNDATASIZE DUP6 GT PUSH2 0x424 JUMPI JUMPDEST PUSH2 0x416 DUP2 DUP4 PUSH2 0x13A8 JUMP JUMPDEST DUP2 ADD SWAP1 PUSH2 0x15B2 JUMP JUMPDEST CODESIZE PUSH2 0x3BF JUMP JUMPDEST POP RETURNDATASIZE PUSH2 0x40C JUMP JUMPDEST DUP3 MLOAD RETURNDATASIZE DUP8 DUP3 RETURNDATACOPY RETURNDATASIZE SWAP1 REVERT JUMPDEST DUP4 MLOAD PUSH3 0x461BCD PUSH1 0xE5 SHL DUP2 MSTORE DUP1 DUP8 ADD DUP7 SWAP1 MSTORE PUSH1 0x13 PUSH1 0x24 DUP3 ADD MSTORE PUSH19 0x4E6F205553444320746F207769746864726177 PUSH1 0x68 SHL PUSH1 0x44 DUP3 ADD MSTORE PUSH1 0x64 SWAP1 REVERT JUMPDEST SWAP1 SWAP3 POP DUP5 DUP2 DUP2 RETURNDATASIZE DUP4 GT PUSH2 0x49A JUMPI JUMPDEST PUSH2 0x486 DUP2 DUP4 PUSH2 0x13A8 JUMP JUMPDEST DUP2 ADD SUB SLT PUSH2 0x496 JUMPI MLOAD SWAP2 CODESIZE PUSH2 0x370 JUMP JUMPDEST DUP7 DUP1 REVERT JUMPDEST POP RETURNDATASIZE PUSH2 0x47C JUMP JUMPDEST DUP5 MLOAD RETURNDATASIZE DUP10 DUP3 RETURNDATACOPY RETURNDATASIZE SWAP1 REVERT JUMPDEST DUP3 DUP5 CALLVALUE PUSH2 0x50B JUMPI DUP1 PUSH1 0x3 NOT CALLDATASIZE ADD SLT PUSH2 0x50B JUMPI POP PUSH1 0x3 SLOAD SWAP2 SLOAD PUSH1 0x5 SLOAD PUSH1 0x6 SLOAD PUSH1 0x7 SLOAD PUSH1 0x8 DUP1 SLOAD SWAP6 MLOAD SWAP7 DUP8 MSTORE PUSH1 0x20 DUP8 ADD SWAP5 SWAP1 SWAP5 MSTORE PUSH1 0x40 DUP7 ADD SWAP3 SWAP1 SWAP3 MSTORE PUSH1 0x60 DUP6 ADD MSTORE PUSH1 0x80 DUP5 ADD MSTORE PUSH1 0xFF DUP1 DUP4 AND ISZERO ISZERO PUSH1 0xA0 DUP6 ADD MSTORE SWAP2 SWAP1 SHR AND ISZERO ISZERO PUSH1 0xC0 DUP3 ADD MSTORE PUSH1 0xE0 SWAP1 RETURN JUMPDEST DUP1 REVERT JUMPDEST SWAP1 POP DUP3 CALLVALUE PUSH2 0x50B JUMPI PUSH1 0x20 CALLDATASIZE PUSH1 0x3 NOT ADD SLT PUSH2 0x50B JUMPI DUP2 CALLDATALOAD SWAP1 PUSH8 0xFFFFFFFFFFFFFFFF DUP3 GT PUSH2 0x50B JUMPI POP PUSH2 0x547 PUSH2 0x2D6 SWAP3 PUSH1 0x20 SWAP3 CALLDATASIZE SWAP2 ADD PUSH2 0x11A6 JUMP JUMPDEST SWAP2 SWAP1 DUP3 DUP6 MLOAD SWAP4 DUP5 SWAP3 DUP4 CALLDATACOPY DUP2 ADD PUSH1 0xA DUP2 MSTORE SUB ADD SWAP1 KECCAK256 PUSH2 0x1C64 JUMP JUMPDEST SWAP2 SWAP1 POP CALLVALUE PUSH2 0x1DB JUMPI PUSH1 0x20 DUP1 PUSH1 0x3 NOT CALLDATASIZE ADD SLT PUSH2 0x656 JUMPI DUP3 CALLDATALOAD SWAP3 PUSH2 0x586 PUSH1 0xFF PUSH1 0x8 SLOAD AND PUSH2 0x11D9 JUMP JUMPDEST PUSH2 0x594 PUSH1 0x3 SLOAD TIMESTAMP LT ISZERO PUSH2 0x1219 JUMP JUMPDEST PUSH2 0x5A1 DUP2 SLOAD TIMESTAMP GT ISZERO PUSH2 0x125B JUMP JUMPDEST CALLER DUP6 MSTORE PUSH1 0x9 DUP3 MSTORE DUP3 DUP6 KECCAK256 SLOAD ISZERO PUSH2 0x621 JUMPI POP SWAP1 PUSH32 0xB7F20D0949B6A8BC59D005AF4A52F7FF5D0CFCDE9056FA556ADB0E4B24DCB6D2 SWAP2 CALLER DUP6 MSTORE PUSH1 0x9 DUP2 MSTORE PUSH2 0x5EF PUSH1 0xFF PUSH1 0x1 DUP5 DUP9 KECCAK256 ADD SLOAD AND ISZERO PUSH2 0x1C18 JUMP JUMPDEST CALLER DUP6 MSTORE PUSH1 0x9 DUP2 MSTORE DUP2 DUP6 KECCAK256 DUP5 DUP2 SSTORE PUSH1 0x1 DUP2 ADD PUSH1 0x1 PUSH1 0xFF NOT DUP3 SLOAD AND OR SWAP1 SSTORE PUSH1 0x2 TIMESTAMP SWAP2 ADD SSTORE DUP2 MLOAD SWAP4 DUP5 MSTORE TIMESTAMP SWAP1 DUP5 ADD MSTORE CALLER SWAP3 LOG2 DUP1 RETURN JUMPDEST SWAP2 MLOAD PUSH3 0x461BCD PUSH1 0xE5 SHL DUP2 MSTORE SWAP2 DUP3 ADD MSTORE PUSH1 0x11 PUSH1 0x24 DUP3 ADD MSTORE PUSH17 0x141B185E595C881B9BDD081A9BDA5B9959 PUSH1 0x7A SHL PUSH1 0x44 DUP3 ADD MSTORE PUSH1 0x64 SWAP1 REVERT JUMPDEST DUP4 DUP1 REVERT JUMPDEST SWAP2 SWAP1 POP CALLVALUE PUSH2 0x1DB JUMPI DUP3 PUSH1 0x3 NOT CALLDATASIZE ADD SLT PUSH2 0x1DB JUMPI PUSH2 0x675 PUSH2 0x1CBD JUMP JUMPDEST CALLER DUP4 MSTORE PUSH1 0x20 PUSH1 0x9 DUP2 MSTORE DUP2 DUP5 KECCAK256 SLOAD PUSH2 0x96B JUMPI PUSH1 0xFF PUSH1 0x8 SLOAD AND ISZERO PUSH2 0x95E JUMPI JUMPDEST PUSH2 0x6A0 PUSH1 0xFF PUSH1 0x8 SLOAD AND PUSH2 0x11D9 JUMP JUMPDEST PUSH2 0x6AE PUSH1 0x3 SLOAD TIMESTAMP LT ISZERO PUSH2 0x1219 JUMP JUMPDEST PUSH2 0x6BB DUP4 SLOAD TIMESTAMP GT ISZERO PUSH2 0x125B JUMP JUMPDEST PUSH1 0x1 DUP1 PUSH1 0xA0 SHL SUB DUP1 PUSH32 0x0 AND SWAP4 DUP4 MLOAD SWAP5 PUSH4 0x23B872DD PUSH1 0xE0 SHL DUP7 MSTORE CALLER DUP3 DUP8 ADD MSTORE PUSH1 0x24 SWAP1 ADDRESS DUP3 DUP9 ADD MSTORE PUSH3 0xF4240 SWAP7 DUP8 PUSH1 0x44 DUP3 ADD MSTORE DUP6 DUP2 PUSH1 0x64 DUP2 DUP13 DUP7 GAS CALL SWAP1 DUP2 ISZERO PUSH2 0x8FE JUMPI DUP10 SWAP2 PUSH2 0x941 JUMPI JUMPDEST POP ISZERO PUSH2 0x908 JUMPI DUP4 PUSH1 0x2 SLOAD AND DUP1 PUSH2 0x834 JUMPI JUMPDEST POP POP PUSH1 0x5 SLOAD PUSH3 0xEE098 DUP2 ADD DUP1 SWAP2 GT PUSH2 0x822 JUMPI PUSH1 0x5 SSTORE PUSH2 0x753 PUSH1 0x6 SLOAD PUSH2 0x1297 JUMP JUMPDEST PUSH1 0x6 SSTORE PUSH1 0xB SLOAD SWAP2 PUSH1 0x1 PUSH1 0x40 SHL DUP4 LT ISZERO PUSH2 0x811 JUMPI POP POP SWAP2 PUSH2 0x61A8 SWAP2 PUSH2 0x79F DUP5 PUSH1 0x1 PUSH32 0xC9B3932FAB18F6AC6D50CAC9682ED0C164CE31D2505F3571323A0CF5902DD68C SWAP8 SWAP7 ADD PUSH1 0xB SSTORE PUSH2 0x12BC JUMP JUMPDEST DUP2 SWAP3 SWAP2 SLOAD SWAP1 PUSH1 0x3 SHL SWAP2 CALLER DUP4 SHL SWAP3 SHL NOT AND OR SWAP1 SSTORE PUSH2 0x7FF DUP4 MLOAD PUSH2 0x7C0 DUP2 PUSH2 0x135A JUMP JUMPDEST DUP8 DUP2 MSTORE DUP8 DUP4 DUP3 ADD MSTORE DUP8 DUP6 DUP3 ADD MSTORE CALLER DUP9 MSTORE PUSH1 0x9 DUP4 MSTORE DUP5 DUP9 KECCAK256 SWAP1 PUSH1 0x40 PUSH1 0x2 SWAP2 DUP1 MLOAD DUP5 SSTORE PUSH1 0x1 DUP5 ADD PUSH1 0x20 DUP3 ADD MLOAD ISZERO ISZERO PUSH1 0xFF DUP1 NOT DUP4 SLOAD AND SWAP2 AND OR SWAP1 SSTORE ADD MLOAD SWAP2 ADD SSTORE JUMP JUMPDEST DUP3 MLOAD SWAP5 DUP6 MSTORE DUP5 ADD MSTORE CALLER SWAP3 LOG2 PUSH1 0x1 DUP2 SSTORE DUP1 RETURN JUMPDEST PUSH4 0x4E487B71 PUSH1 0xE0 SHL DUP9 MSTORE PUSH1 0x41 SWAP1 MSTORE DUP7 REVERT JUMPDEST POP PUSH4 0x4E487B71 PUSH1 0xE0 SHL DUP8 MSTORE PUSH1 0x11 DUP3 MSTORE DUP7 REVERT JUMPDEST DUP7 MLOAD SWAP1 PUSH4 0xA9059CBB PUSH1 0xE0 SHL DUP3 MSTORE DUP5 DUP3 ADD MSTORE DUP6 DUP2 PUSH1 0x44 DUP2 DUP13 PUSH2 0x61A8 SWAP7 DUP8 DUP10 DUP5 ADD MSTORE GAS CALL SWAP1 DUP2 ISZERO PUSH2 0x8FE JUMPI DUP10 SWAP2 PUSH2 0x8E1 JUMPI JUMPDEST POP ISZERO PUSH2 0x89F JUMPI PUSH32 0xCF1BD34E586F4E12EF1C4C84C337B05DD3F7FC5409E16C5FEA9063524EB77022 DUP6 DUP6 PUSH1 0x2 SLOAD AND SWAP3 DUP9 MLOAD SWAP1 DUP2 MSTORE LOG2 CODESIZE DUP1 PUSH2 0x733 JUMP JUMPDEST DUP6 MLOAD PUSH3 0x461BCD PUSH1 0xE5 SHL DUP2 MSTORE DUP1 DUP5 ADD DUP7 SWAP1 MSTORE PUSH1 0x1C DUP2 DUP5 ADD MSTORE PUSH32 0x506C6174666F726D20666565207472616E73666572206661696C656400000000 PUSH1 0x44 DUP3 ADD MSTORE PUSH1 0x64 SWAP1 REVERT JUMPDEST PUSH2 0x8F8 SWAP2 POP DUP7 RETURNDATASIZE DUP9 GT PUSH2 0x424 JUMPI PUSH2 0x416 DUP2 DUP4 PUSH2 0x13A8 JUMP JUMPDEST CODESIZE PUSH2 0x864 JUMP JUMPDEST DUP8 MLOAD RETURNDATASIZE DUP12 DUP3 RETURNDATACOPY RETURNDATASIZE SWAP1 REVERT JUMPDEST DUP6 MLOAD PUSH3 0x461BCD PUSH1 0xE5 SHL DUP2 MSTORE DUP1 DUP5 ADD DUP7 SWAP1 MSTORE PUSH1 0x14 DUP2 DUP5 ADD MSTORE PUSH20 0x1554D110C81D1C985B9CD9995C8819985A5B1959 PUSH1 0x62 SHL PUSH1 0x44 DUP3 ADD MSTORE PUSH1 0x64 SWAP1 REVERT JUMPDEST PUSH2 0x958 SWAP2 POP DUP7 RETURNDATASIZE DUP9 GT PUSH2 0x424 JUMPI PUSH2 0x416 DUP2 DUP4 PUSH2 0x13A8 JUMP JUMPDEST CODESIZE PUSH2 0x722 JUMP JUMPDEST PUSH2 0x966 PUSH2 0x13CA JUMP JUMPDEST PUSH2 0x692 JUMP JUMPDEST SWAP1 MLOAD PUSH3 0x461BCD PUSH1 0xE5 SHL DUP2 MSTORE SWAP2 DUP3 ADD MSTORE PUSH1 0xE PUSH1 0x24 DUP3 ADD MSTORE PUSH14 0x105B1C9958591E481A9BDA5B9959 PUSH1 0x92 SHL PUSH1 0x44 DUP3 ADD MSTORE PUSH1 0x64 SWAP1 REVERT JUMPDEST DUP4 SWAP2 POP CALLVALUE PUSH2 0x112 JUMPI DUP3 PUSH1 0x3 NOT CALLDATASIZE ADD SLT PUSH2 0x112 JUMPI DUP1 CALLDATALOAD PUSH8 0xFFFFFFFFFFFFFFFF DUP2 GT PUSH2 0x1DB JUMPI PUSH2 0x9CE SWAP1 CALLDATASIZE SWAP1 DUP4 ADD PUSH2 0x11A6 JUMP JUMPDEST PUSH1 0x24 SWAP5 SWAP2 SWAP5 CALLDATALOAD SWAP1 PUSH2 0x9E3 PUSH1 0xFF PUSH1 0x8 SLOAD AND PUSH2 0x11D9 JUMP JUMPDEST PUSH2 0x9F1 PUSH1 0x3 SLOAD TIMESTAMP LT ISZERO PUSH2 0x1219 JUMP JUMPDEST PUSH2 0x9FE DUP5 SLOAD TIMESTAMP GT ISZERO PUSH2 0x125B JUMP JUMPDEST DUP3 MLOAD SWAP4 DUP2 DUP8 DUP7 CALLDATACOPY DUP5 DUP3 DUP2 ADD PUSH1 0xA DUP2 MSTORE PUSH1 0x20 SWAP7 DUP8 SWAP2 SUB ADD SWAP1 KECCAK256 SLOAD ISZERO PUSH2 0xAD3 JUMPI POP PUSH32 0xBD6CA4B35A8166766CBD9F87F743EDB98A23E3033EE5995DBE8F750279DB9AAE SWAP4 SWAP5 SWAP6 PUSH2 0xA64 PUSH1 0xFF PUSH1 0x1 DUP7 MLOAD DUP6 DUP6 DUP3 CALLDATACOPY DUP10 DUP2 DUP8 DUP2 ADD PUSH1 0xA DUP2 MSTORE SUB ADD SWAP1 KECCAK256 ADD SLOAD AND ISZERO PUSH2 0x1C18 JUMP JUMPDEST DUP3 DUP5 MLOAD DUP4 DUP4 DUP3 CALLDATACOPY DUP8 DUP2 DUP6 DUP2 ADD PUSH1 0xA DUP2 MSTORE SUB ADD SWAP1 KECCAK256 SSTORE PUSH1 0x1 DUP5 MLOAD DUP4 DUP4 DUP3 CALLDATACOPY DUP8 DUP2 DUP6 DUP2 ADD PUSH1 0xA DUP2 MSTORE SUB ADD SWAP1 KECCAK256 ADD PUSH1 0x1 PUSH1 0xFF NOT DUP3 SLOAD AND OR SWAP1 SSTORE DUP4 MLOAD DUP3 DUP3 DUP3 CALLDATACOPY PUSH1 0x2 DUP4 DUP3 ADD SWAP2 PUSH1 0xA DUP4 MSTORE DUP9 DUP2 TIMESTAMP SWAP5 SUB ADD SWAP1 KECCAK256 ADD SSTORE DUP2 DUP5 MLOAD SWAP3 DUP4 SWAP3 DUP4 CALLDATACOPY DUP2 ADD DUP8 DUP2 MSTORE SUB SWAP1 KECCAK256 SWAP4 DUP3 MLOAD SWAP2 DUP3 MSTORE TIMESTAMP SWAP1 DUP3 ADD MSTORE LOG2 DUP1 RETURN JUMPDEST DUP4 MLOAD PUSH3 0x461BCD PUSH1 0xE5 SHL DUP2 MSTORE SWAP1 DUP2 ADD DUP6 SWAP1 MSTORE PUSH1 0x17 PUSH1 0x24 DUP3 ADD MSTORE PUSH32 0x547269616C20706C61796572206E6F74206A6F696E6564000000000000000000 PUSH1 0x44 DUP3 ADD MSTORE PUSH1 0x64 SWAP1 REVERT JUMPDEST POP POP CALLVALUE PUSH2 0x112 JUMPI DUP2 PUSH1 0x3 NOT CALLDATASIZE ADD SLT PUSH2 0x112 JUMPI PUSH1 0x1 SLOAD SWAP1 MLOAD PUSH1 0x1 PUSH1 0x1 PUSH1 0xA0 SHL SUB SWAP1 SWAP2 AND DUP2 MSTORE PUSH1 0x20 SWAP1 RETURN JUMPDEST SWAP2 SWAP1 POP CALLVALUE PUSH2 0x1DB JUMPI DUP3 PUSH1 0x3 NOT CALLDATASIZE ADD SLT PUSH2 0x1DB JUMPI PUSH2 0xB5A PUSH2 0x1C91 JUMP JUMPDEST PUSH1 0xFF PUSH1 0x8 SLOAD AND ISZERO DUP1 ISZERO PUSH2 0xBBF JUMPI JUMPDEST ISZERO PUSH2 0xB85 JUMPI DUP3 PUSH2 0xB76 PUSH2 0x1CBD JUMP JUMPDEST PUSH2 0xB7E PUSH2 0x15CA JUMP JUMPDEST PUSH1 0x1 DUP2 SSTORE DUP1 RETURN JUMPDEST SWAP1 PUSH1 0x20 PUSH1 0x64 SWAP3 MLOAD SWAP2 PUSH3 0x461BCD PUSH1 0xE5 SHL DUP4 MSTORE DUP3 ADD MSTORE PUSH1 0x14 PUSH1 0x24 DUP3 ADD MSTORE PUSH20 0x53657373696F6E207374696C6C20616374697665 PUSH1 0x60 SHL PUSH1 0x44 DUP3 ADD MSTORE REVERT JUMPDEST POP DUP2 SLOAD TIMESTAMP GT PUSH2 0xB68 JUMP JUMPDEST DUP4 DUP4 CALLVALUE PUSH2 0x112 JUMPI PUSH1 0x20 DUP1 PUSH1 0x3 NOT CALLDATASIZE ADD SLT PUSH2 0x1DB JUMPI DUP4 CALLDATALOAD SWAP1 PUSH2 0xBE8 PUSH2 0x1C91 JUMP JUMPDEST PUSH1 0xFF PUSH1 0x8 SLOAD AND PUSH2 0xD95 JUMPI DUP2 ISZERO PUSH2 0xD5F JUMPI DUP4 PUSH1 0x3 SSTORE DUP4 DUP6 SSTORE PUSH1 0x5 DUP5 PUSH1 0x5 SSTORE DUP5 PUSH1 0x6 SSTORE DUP5 PUSH1 0x7 SSTORE DUP5 PUSH1 0x8 SSTORE PUSH1 0xB SLOAD DUP6 PUSH1 0xB SSTORE DUP1 PUSH2 0xD1D JUMPI JUMPDEST POP PUSH1 0xC SLOAD SWAP2 DUP6 PUSH1 0xC SSTORE DUP3 PUSH2 0xC92 JUMPI JUMPDEST POP POP POP TIMESTAMP PUSH1 0x3 SSTORE DUP1 TIMESTAMP ADD DUP1 TIMESTAMP GT PUSH2 0xC7F JUMPI PUSH32 0xCE6CBE3431D9EC9AC1A82A77A80BB9120B0250307AFB3ED08873EA84C52B70C0 SWAP4 SWAP5 SSTORE PUSH1 0x1 PUSH2 0xFFFF NOT PUSH1 0x8 SLOAD AND OR PUSH1 0x8 SSTORE DUP2 MLOAD SWAP1 TIMESTAMP DUP3 MSTORE PUSH1 0x20 DUP3 ADD MSTORE LOG1 DUP1 RETURN JUMPDEST PUSH4 0x4E487B71 PUSH1 0xE0 SHL DUP5 MSTORE PUSH1 0x11 DUP6 MSTORE PUSH1 0x24 DUP5 REVERT JUMPDEST PUSH1 0xC DUP7 MSTORE PUSH32 0xDF6966C971051C3D54EC59162606531493A51404A002842F56009D7E5CF4A8C7 SWAP3 DUP4 ADD SWAP3 JUMPDEST DUP4 DUP2 LT PUSH2 0xCC9 JUMPI POP PUSH2 0xC2D JUMP JUMPDEST DUP1 DUP8 PUSH2 0xCD7 PUSH1 0x1 SWAP4 SLOAD PUSH2 0x1309 JUMP JUMPDEST DUP1 PUSH2 0xCE5 JUMPI JUMPDEST POP POP ADD PUSH2 0xCBC JUMP JUMPDEST PUSH1 0x1F DUP1 DUP3 GT DUP6 EQ PUSH2 0xCFC JUMPI POP POP DUP2 SSTORE JUMPDEST DUP8 DUP11 PUSH2 0xCDD JUMP JUMPDEST PUSH2 0xD14 SWAP1 DUP5 DUP5 MSTORE DUP7 DUP5 KECCAK256 SWAP3 ADD DUP8 SHR DUP3 ADD DUP6 DUP4 ADD PUSH2 0x1343 JUMP JUMPDEST DUP2 DUP4 SSTORE SSTORE PUSH2 0xCF5 JUMP JUMPDEST PUSH1 0xB DUP7 MSTORE PUSH32 0x175B7A638427703F0DBE7BB9BBF987A2551717B34E79F33B5B1008D1FA01DB9 SWAP1 DUP2 ADD SWAP1 JUMPDEST DUP2 DUP2 LT PUSH2 0xD54 JUMPI POP PUSH2 0xC1E JUMP JUMPDEST DUP7 DUP2 SSTORE PUSH1 0x1 ADD PUSH2 0xD47 JUMP JUMPDEST DUP3 MLOAD PUSH3 0x461BCD PUSH1 0xE5 SHL DUP2 MSTORE PUSH1 0x20 DUP2 DUP8 ADD MSTORE PUSH1 0x10 PUSH1 0x24 DUP3 ADD MSTORE PUSH16 0x24B73B30B634B210323AB930BA34B7B7 PUSH1 0x81 SHL PUSH1 0x44 DUP3 ADD MSTORE PUSH1 0x64 SWAP1 REVERT JUMPDEST DUP3 MLOAD PUSH3 0x461BCD PUSH1 0xE5 SHL DUP2 MSTORE PUSH1 0x20 DUP2 DUP8 ADD MSTORE PUSH1 0x16 PUSH1 0x24 DUP3 ADD MSTORE PUSH22 0x53657373696F6E20616C726561647920616374697665 PUSH1 0x50 SHL PUSH1 0x44 DUP3 ADD MSTORE PUSH1 0x64 SWAP1 REVERT JUMPDEST DUP4 CALLVALUE PUSH2 0x50B JUMPI DUP1 PUSH1 0x3 NOT CALLDATASIZE ADD SLT PUSH2 0x50B JUMPI PUSH2 0xDEA PUSH2 0x1C91 JUMP JUMPDEST PUSH1 0x1 DUP1 SLOAD PUSH1 0x1 PUSH1 0x1 PUSH1 0xA0 SHL SUB NOT DUP2 AND SWAP1 SWAP2 SSTORE DUP2 SWAP1 PUSH1 0x1 PUSH1 0x1 PUSH1 0xA0 SHL SUB AND PUSH32 0x8BE0079C531659141344CD1FD0A4F28419497F9722A3DAAFE3B4186F6B6457E0 DUP3 DUP1 LOG3 DUP1 RETURN JUMPDEST POP POP CALLVALUE PUSH2 0x112 JUMPI DUP2 PUSH1 0x3 NOT CALLDATASIZE ADD SLT PUSH2 0x112 JUMPI PUSH1 0x20 SWAP1 MLOAD PUSH1 0xFA DUP2 MSTORE RETURN JUMPDEST DUP4 DUP4 CALLVALUE PUSH2 0x112 JUMPI PUSH1 0x20 SWAP1 DUP2 PUSH1 0x3 NOT CALLDATASIZE ADD SLT PUSH2 0x1DB JUMPI PUSH8 0xFFFFFFFFFFFFFFFF SWAP1 DUP5 CALLDATALOAD DUP3 DUP2 GT PUSH2 0x1D7 JUMPI PUSH2 0xE7F SWAP1 CALLDATASIZE SWAP1 DUP8 ADD PUSH2 0x11A6 JUMP JUMPDEST SWAP4 SWAP1 SWAP3 DUP5 ISZERO PUSH2 0x112B JUMPI DUP3 MLOAD DUP6 DUP6 DUP3 CALLDATACOPY DUP3 DUP2 DUP8 DUP2 ADD PUSH1 0xA DUP2 MSTORE SUB ADD SWAP1 KECCAK256 SLOAD PUSH2 0x10E8 JUMPI PUSH1 0xFF PUSH1 0x8 SLOAD AND ISZERO PUSH2 0x10DB JUMPI JUMPDEST PUSH2 0xEBA PUSH1 0xFF PUSH1 0x8 SLOAD AND PUSH2 0x11D9 JUMP JUMPDEST PUSH2 0xEC8 PUSH1 0x3 SLOAD TIMESTAMP LT ISZERO PUSH2 0x1219 JUMP JUMPDEST PUSH2 0xED5 DUP8 SLOAD TIMESTAMP GT ISZERO PUSH2 0x125B JUMP JUMPDEST PUSH2 0xEE0 PUSH1 0x7 SLOAD PUSH2 0x1297 JUMP JUMPDEST PUSH1 0x7 SSTORE PUSH1 0xC SLOAD PUSH1 0x1 PUSH1 0x40 SHL DUP2 LT ISZERO PUSH2 0x10B5 JUMPI PUSH1 0x1 SWAP1 PUSH1 0x1 DUP2 ADD DUP1 PUSH1 0xC SSTORE DUP2 LT ISZERO PUSH2 0x10C8 JUMPI PUSH1 0xC DUP9 MSTORE PUSH32 0xDF6966C971051C3D54EC59162606531493A51404A002842F56009D7E5CF4A8C7 ADD SWAP2 DUP7 GT PUSH2 0x10B5 JUMPI SWAP1 DUP6 SWAP4 SWAP3 SWAP2 PUSH2 0xF40 DUP3 SLOAD PUSH2 0x1309 JUMP JUMPDEST PUSH1 0x1F DUP2 GT PUSH2 0x107C JUMPI JUMPDEST POP DUP8 SWAP1 PUSH1 0x1F DUP7 GT PUSH1 0x1 EQ PUSH2 0x100E JUMPI POP SWAP1 DUP5 PUSH2 0xFCE SWAP4 SWAP3 DUP10 SWAP2 PUSH2 0x1003 JUMPI JUMPDEST POP DUP6 PUSH1 0x1 SHL SWAP1 PUSH1 0x0 NOT DUP8 PUSH1 0x3 SHL SHR NOT AND OR SWAP1 SSTORE JUMPDEST DUP3 MLOAD SWAP1 PUSH2 0xF86 DUP3 PUSH2 0x135A JUMP JUMPDEST DUP8 DUP3 MSTORE DUP8 DUP2 DUP4 ADD MSTORE DUP8 DUP5 DUP4 ADD MSTORE DUP4 MLOAD SWAP1 DUP6 DUP8 DUP4 CALLDATACOPY DUP2 DUP7 DUP2 ADD PUSH1 0xA DUP2 MSTORE SUB ADD SWAP1 KECCAK256 SWAP1 PUSH1 0x40 PUSH1 0x2 SWAP2 DUP1 MLOAD DUP5 SSTORE PUSH1 0x1 DUP5 ADD PUSH1 0x20 DUP3 ADD MLOAD ISZERO ISZERO PUSH1 0xFF DUP1 NOT DUP4 SLOAD AND SWAP2 AND OR SWAP1 SSTORE ADD MLOAD SWAP2 ADD SSTORE JUMP JUMPDEST MLOAD SWAP3 DUP4 SWAP3 DUP4 CALLDATACOPY DUP2 ADD DUP4 DUP2 MSTORE SUB SWAP1 KECCAK256 PUSH32 0x93A1DFBF47C62F8886F8594F34973102DA8B27CE9A0206226A3957BD9EE777D7 DUP3 DUP1 LOG2 DUP1 RETURN JUMPDEST SWAP1 POP DUP7 ADD CALLDATALOAD DUP10 PUSH2 0xF66 JUMP JUMPDEST DUP3 DUP10 MSTORE DUP4 DUP10 KECCAK256 PUSH1 0x1F NOT DUP8 AND SWAP7 SWAP6 SWAP5 SWAP4 SWAP3 SWAP1 SWAP2 DUP11 SWAP1 JUMPDEST DUP9 DUP3 LT PUSH2 0x1062 JUMPI POP POP DUP6 PUSH2 0xFCE SWAP6 SWAP7 SWAP8 LT PUSH2 0x1048 JUMPI JUMPDEST POP POP PUSH1 0x1 DUP6 DUP2 SHL ADD SWAP1 SSTORE PUSH2 0xF7A JUMP JUMPDEST DUP8 ADD CALLDATALOAD PUSH1 0x0 NOT PUSH1 0x3 DUP9 SWAP1 SHL PUSH1 0xF8 AND SHR NOT AND SWAP1 SSTORE DUP9 DUP1 PUSH2 0x1039 JUMP JUMPDEST DUP10 DUP4 ADD CALLDATALOAD DUP5 SSTORE DUP11 SWAP8 POP SWAP3 DUP4 ADD SWAP3 SWAP2 DUP6 ADD SWAP2 SWAP1 DUP6 ADD SWAP1 PUSH2 0x1023 JUMP JUMPDEST PUSH2 0x10A5 SWAP1 DUP4 DUP11 MSTORE DUP5 DUP11 KECCAK256 PUSH1 0x1F DUP9 ADD PUSH1 0x5 SHR DUP2 ADD SWAP2 DUP7 DUP10 LT PUSH2 0x10AB JUMPI JUMPDEST PUSH1 0x1F ADD PUSH1 0x5 SHR ADD SWAP1 PUSH2 0x1343 JUMP JUMPDEST DUP9 PUSH2 0xF49 JUMP JUMPDEST SWAP1 SWAP2 POP DUP2 SWAP1 PUSH2 0x1098 JUMP JUMPDEST PUSH4 0x4E487B71 PUSH1 0xE0 SHL DUP8 MSTORE PUSH1 0x41 DUP9 MSTORE PUSH1 0x24 DUP8 REVERT JUMPDEST PUSH4 0x4E487B71 PUSH1 0xE0 SHL DUP9 MSTORE PUSH1 0x32 DUP10 MSTORE PUSH1 0x24 DUP9 REVERT JUMPDEST PUSH2 0x10E3 PUSH2 0x13CA JUMP JUMPDEST PUSH2 0xEAC JUMP JUMPDEST DUP3 MLOAD PUSH3 0x461BCD PUSH1 0xE5 SHL DUP2 MSTORE DUP1 DUP9 ADD DUP4 SWAP1 MSTORE PUSH1 0x17 PUSH1 0x24 DUP3 ADD MSTORE PUSH32 0x53657373696F6E20494420616C72656164792075736564000000000000000000 PUSH1 0x44 DUP3 ADD MSTORE PUSH1 0x64 SWAP1 REVERT JUMPDEST DUP3 MLOAD PUSH3 0x461BCD PUSH1 0xE5 SHL DUP2 MSTORE DUP1 DUP9 ADD DUP4 SWAP1 MSTORE PUSH1 0x12 PUSH1 0x24 DUP3 ADD MSTORE PUSH18 0x125B9D985B1A59081CD95CDCDA5BDB881251 PUSH1 0x72 SHL PUSH1 0x44 DUP3 ADD MSTORE PUSH1 0x64 SWAP1 REVERT JUMPDEST DUP5 SWAP1 CALLVALUE PUSH2 0x112 JUMPI DUP2 PUSH1 0x3 NOT CALLDATASIZE ADD SLT PUSH2 0x112 JUMPI PUSH32 0x0 PUSH1 0x1 PUSH1 0x1 PUSH1 0xA0 SHL SUB AND DUP2 MSTORE PUSH1 0x20 SWAP1 RETURN JUMPDEST SWAP2 DUP2 PUSH1 0x1F DUP5 ADD SLT ISZERO PUSH2 0x11D4 JUMPI DUP3 CALLDATALOAD SWAP2 PUSH8 0xFFFFFFFFFFFFFFFF DUP4 GT PUSH2 0x11D4 JUMPI PUSH1 0x20 DUP4 DUP2 DUP7 ADD SWAP6 ADD ADD GT PUSH2 0x11D4 JUMPI JUMP JUMPDEST PUSH1 0x0 DUP1 REVERT JUMPDEST ISZERO PUSH2 0x11E0 JUMPI JUMP JUMPDEST PUSH1 0x40 MLOAD PUSH3 0x461BCD PUSH1 0xE5 SHL DUP2 MSTORE PUSH1 0x20 PUSH1 0x4 DUP3 ADD MSTORE PUSH1 0x11 PUSH1 0x24 DUP3 ADD MSTORE PUSH17 0x27379030B1BA34BB329039B2B9B9B4B7B7 PUSH1 0x79 SHL PUSH1 0x44 DUP3 ADD MSTORE PUSH1 0x64 SWAP1 REVERT JUMPDEST ISZERO PUSH2 0x1220 JUMPI JUMP JUMPDEST PUSH1 0x40 MLOAD PUSH3 0x461BCD PUSH1 0xE5 SHL DUP2 MSTORE PUSH1 0x20 PUSH1 0x4 DUP3 ADD MSTORE PUSH1 0x13 PUSH1 0x24 DUP3 ADD MSTORE PUSH19 0x14D95CDCDA5BDB881B9BDD081CDD185C9D1959 PUSH1 0x6A SHL PUSH1 0x44 DUP3 ADD MSTORE PUSH1 0x64 SWAP1 REVERT JUMPDEST ISZERO PUSH2 0x1262 JUMPI JUMP JUMPDEST PUSH1 0x40 MLOAD PUSH3 0x461BCD PUSH1 0xE5 SHL DUP2 MSTORE PUSH1 0x20 PUSH1 0x4 DUP3 ADD MSTORE PUSH1 0xD PUSH1 0x24 DUP3 ADD MSTORE PUSH13 0x14D95CDCDA5BDB88195B991959 PUSH1 0x9A SHL PUSH1 0x44 DUP3 ADD MSTORE PUSH1 0x64 SWAP1 REVERT JUMPDEST PUSH1 0x0 NOT DUP2 EQ PUSH2 0x12A6 JUMPI PUSH1 0x1 ADD SWAP1 JUMP JUMPDEST PUSH4 0x4E487B71 PUSH1 0xE0 SHL PUSH1 0x0 MSTORE PUSH1 0x11 PUSH1 0x4 MSTORE PUSH1 0x24 PUSH1 0x0 REVERT JUMPDEST PUSH1 0xB SLOAD DUP2 LT ISZERO PUSH2 0x12F3 JUMPI PUSH1 0xB PUSH1 0x0 MSTORE PUSH32 0x175B7A638427703F0DBE7BB9BBF987A2551717B34E79F33B5B1008D1FA01DB9 ADD SWAP1 PUSH1 0x0 SWAP1 JUMP JUMPDEST PUSH4 0x4E487B71 PUSH1 0xE0 SHL PUSH1 0x0 MSTORE PUSH1 0x32 PUSH1 0x4 MSTORE PUSH1 0x24 PUSH1 0x0 REVERT JUMPDEST SWAP1 PUSH1 0x1 DUP3 DUP2 SHR SWAP3 AND DUP1 ISZERO PUSH2 0x1339 JUMPI JUMPDEST PUSH1 0x20 DUP4 LT EQ PUSH2 0x1323 JUMPI JUMP JUMPDEST PUSH4 0x4E487B71 PUSH1 0xE0 SHL PUSH1 0x0 MSTORE PUSH1 0x22 PUSH1 0x4 MSTORE PUSH1 0x24 PUSH1 0x0 REVERT JUMPDEST SWAP2 PUSH1 0x7F AND SWAP2 PUSH2 0x1318 JUMP JUMPDEST DUP2 DUP2 LT PUSH2 0x134E JUMPI POP POP JUMP JUMPDEST PUSH1 0x0 DUP2 SSTORE PUSH1 0x1 ADD PUSH2 0x1343 JUMP JUMPDEST PUSH1 0x60 DUP2 ADD SWAP1 DUP2 LT PUSH8 0xFFFFFFFFFFFFFFFF DUP3 GT OR PUSH2 0x1376 JUMPI PUSH1 0x40 MSTORE JUMP JUMPDEST PUSH4 0x4E487B71 PUSH1 0xE0 SHL PUSH1 0x0 MSTORE PUSH1 0x41 PUSH1 0x4 MSTORE PUSH1 0x24 PUSH1 0x0 REVERT JUMPDEST PUSH1 0x40 DUP2 ADD SWAP1 DUP2 LT PUSH8 0xFFFFFFFFFFFFFFFF DUP3 GT OR PUSH2 0x1376 JUMPI PUSH1 0x40 MSTORE JUMP JUMPDEST SWAP1 PUSH1 0x1F DUP1 NOT SWAP2 ADD AND DUP2 ADD SWAP1 DUP2 LT PUSH8 0xFFFFFFFFFFFFFFFF DUP3 GT OR PUSH2 0x1376 JUMPI PUSH1 0x40 MSTORE JUMP JUMPDEST PUSH1 0xFF PUSH1 0x8 SLOAD AND PUSH2 0x1548 JUMPI PUSH1 0x0 DUP1 PUSH1 0x3 SSTORE DUP1 PUSH1 0x4 SSTORE PUSH1 0x5 DUP2 PUSH1 0x5 SSTORE DUP2 PUSH1 0x6 SSTORE DUP2 PUSH1 0x7 SSTORE DUP2 PUSH1 0x8 SSTORE PUSH1 0xB SLOAD DUP3 PUSH1 0xB SSTORE DUP1 PUSH2 0x1506 JUMPI JUMPDEST POP PUSH1 0xC SLOAD SWAP1 DUP3 PUSH1 0xC SSTORE DUP2 PUSH2 0x147A JUMPI JUMPDEST POP POP TIMESTAMP PUSH1 0x3 SSTORE PUSH2 0x12C SWAP1 DUP2 TIMESTAMP ADD SWAP1 DUP2 TIMESTAMP GT PUSH2 0x1466 JUMPI POP PUSH32 0xCE6CBE3431D9EC9AC1A82A77A80BB9120B0250307AFB3ED08873EA84C52B70C0 SWAP2 PUSH1 0x40 SWAP2 PUSH1 0x4 SSTORE PUSH1 0x1 PUSH2 0xFFFF NOT PUSH1 0x8 SLOAD AND OR PUSH1 0x8 SSTORE DUP2 MLOAD SWAP1 TIMESTAMP DUP3 MSTORE PUSH1 0x20 DUP3 ADD MSTORE LOG1 JUMP JUMPDEST PUSH4 0x4E487B71 PUSH1 0xE0 SHL DUP2 MSTORE PUSH1 0x11 PUSH1 0x4 MSTORE PUSH1 0x24 SWAP1 REVERT JUMPDEST PUSH1 0xC DUP4 MSTORE PUSH32 0xDF6966C971051C3D54EC59162606531493A51404A002842F56009D7E5CF4A8C7 SWAP2 DUP3 ADD SWAP2 JUMPDEST DUP3 DUP2 LT PUSH2 0x14B1 JUMPI POP PUSH2 0x140C JUMP JUMPDEST DUP1 DUP5 PUSH2 0x14BF PUSH1 0x1 SWAP4 SLOAD PUSH2 0x1309 JUMP JUMPDEST DUP1 PUSH2 0x14CD JUMPI JUMPDEST POP POP ADD PUSH2 0x14A4 JUMP JUMPDEST PUSH1 0x1F DUP1 DUP3 GT DUP6 EQ PUSH2 0x14E4 JUMPI POP POP DUP2 SSTORE JUMPDEST DUP5 CODESIZE PUSH2 0x14C5 JUMP JUMPDEST PUSH2 0x14FD SWAP1 DUP5 DUP5 MSTORE PUSH1 0x20 DUP5 KECCAK256 SWAP3 ADD DUP7 SHR DUP3 ADD DUP6 DUP4 ADD PUSH2 0x1343 JUMP JUMPDEST DUP2 DUP4 SSTORE SSTORE PUSH2 0x14DD JUMP JUMPDEST PUSH1 0xB DUP4 MSTORE PUSH32 0x175B7A638427703F0DBE7BB9BBF987A2551717B34E79F33B5B1008D1FA01DB9 SWAP1 DUP2 ADD SWAP1 JUMPDEST DUP2 DUP2 LT PUSH2 0x153D JUMPI POP PUSH2 0x13FD JUMP JUMPDEST DUP4 DUP2 SSTORE PUSH1 0x1 ADD PUSH2 0x1530 JUMP JUMPDEST PUSH1 0x40 MLOAD PUSH3 0x461BCD PUSH1 0xE5 SHL DUP2 MSTORE PUSH1 0x20 PUSH1 0x4 DUP3 ADD MSTORE PUSH1 0x16 PUSH1 0x24 DUP3 ADD MSTORE PUSH22 0x53657373696F6E20616C726561647920616374697665 PUSH1 0x50 SHL PUSH1 0x44 DUP3 ADD MSTORE PUSH1 0x64 SWAP1 REVERT JUMPDEST PUSH8 0xFFFFFFFFFFFFFFFF DUP2 GT PUSH2 0x1376 JUMPI PUSH1 0x5 SHL PUSH1 0x20 ADD SWAP1 JUMP JUMPDEST DUP1 MLOAD DUP3 LT ISZERO PUSH2 0x12F3 JUMPI PUSH1 0x20 SWAP2 PUSH1 0x5 SHL ADD ADD SWAP1 JUMP JUMPDEST SWAP1 DUP2 PUSH1 0x20 SWAP2 SUB SLT PUSH2 0x11D4 JUMPI MLOAD DUP1 ISZERO ISZERO DUP2 SUB PUSH2 0x11D4 JUMPI SWAP1 JUMP JUMPDEST PUSH1 0x8 SLOAD SWAP1 PUSH1 0xFF DUP1 DUP4 PUSH1 0x8 SHR AND PUSH2 0x1BD3 JUMPI PUSH1 0x5 SLOAD SWAP1 DUP2 ISZERO PUSH2 0x1B9E JUMPI PUSH1 0xB SLOAD SWAP2 PUSH2 0x15F1 DUP4 PUSH2 0x1586 JUMP JUMPDEST SWAP5 PUSH2 0x15FF PUSH1 0x40 MLOAD SWAP7 DUP8 PUSH2 0x13A8 JUMP JUMPDEST DUP4 DUP7 MSTORE PUSH1 0x1F NOT SWAP4 DUP5 PUSH2 0x1610 DUP3 PUSH2 0x1586 JUMP JUMPDEST ADD PUSH1 0x0 JUMPDEST DUP2 DUP2 LT PUSH2 0x1B79 JUMPI POP POP PUSH1 0x0 SWAP4 DUP5 JUMPDEST DUP3 DUP2 LT PUSH2 0x1AF9 JUMPI POP POP POP DUP3 ISZERO PUSH2 0x1ABA JUMPI POP PUSH1 0x0 SWAP4 SWAP3 SWAP4 SWAP3 JUMPDEST PUSH1 0x0 NOT SWAP5 DUP4 DUP7 ADD DUP5 DUP2 GT PUSH2 0x12A6 JUMPI DUP6 LT ISZERO PUSH2 0x16FE JUMPI PUSH1 0x0 JUMPDEST DUP6 DUP6 SUB DUP6 DUP2 GT PUSH2 0x12A6 JUMPI DUP8 DUP2 ADD SWAP1 DUP2 GT PUSH2 0x12A6 JUMPI DUP2 LT ISZERO PUSH2 0x16F0 JUMPI PUSH1 0x20 SWAP1 DUP2 PUSH2 0x167B DUP3 DUP12 PUSH2 0x159E JUMP JUMPDEST MLOAD ADD MLOAD PUSH1 0x1 DUP3 ADD SWAP1 DUP2 DUP4 GT PUSH2 0x12A6 JUMPI PUSH1 0x1 SWAP4 PUSH2 0x1697 DUP4 DUP14 PUSH2 0x159E JUMP JUMPDEST MLOAD ADD MLOAD GT PUSH2 0x16A7 JUMPI JUMPDEST POP ADD PUSH2 0x1652 JUMP JUMPDEST PUSH2 0x16E9 SWAP1 PUSH2 0x16B5 DUP4 DUP13 PUSH2 0x159E JUMP JUMPDEST MLOAD DUP12 PUSH2 0x16CC DUP6 PUSH2 0x16C5 DUP6 DUP5 PUSH2 0x159E JUMP JUMPDEST MLOAD SWAP3 PUSH2 0x159E JUMP JUMPDEST MSTORE PUSH2 0x16D7 DUP5 DUP14 PUSH2 0x159E JUMP JUMPDEST POP PUSH2 0x16E2 DUP3 DUP14 PUSH2 0x159E JUMP JUMPDEST MSTORE DUP11 PUSH2 0x159E JUMP JUMPDEST POP CODESIZE PUSH2 0x16A0 JUMP JUMPDEST POP SWAP5 POP PUSH1 0x1 SWAP1 SWAP4 ADD SWAP3 PUSH2 0x163A JUMP JUMPDEST SWAP4 POP SWAP1 SWAP4 POP SWAP4 SWAP1 SWAP4 PUSH1 0x32 DUP5 MUL SWAP5 DUP5 DUP7 DIV PUSH1 0x32 SUB PUSH2 0x12A6 JUMPI PUSH1 0x64 SWAP6 PUSH1 0x1E DUP7 MUL DUP7 DUP2 DIV PUSH1 0x1E SUB PUSH2 0x12A6 JUMPI PUSH1 0xF DUP8 MUL DUP8 DUP2 DIV PUSH1 0xF SUB PUSH2 0x12A6 JUMPI PUSH1 0x64 SWAP1 DIV SWAP7 PUSH1 0x5 DUP2 MUL SWAP1 DUP2 DIV PUSH1 0x5 SUB PUSH2 0x12A6 JUMPI PUSH1 0x64 SWAP1 SWAP9 SWAP8 SWAP7 SWAP6 SWAP5 SWAP9 DIV SWAP6 PUSH2 0x175B DUP5 PUSH2 0x1586 JUMP JUMPDEST SWAP4 PUSH2 0x1769 PUSH1 0x40 MLOAD SWAP6 DUP7 PUSH2 0x13A8 JUMP JUMPDEST DUP1 DUP6 MSTORE PUSH2 0x1775 DUP2 PUSH2 0x1586 JUMP JUMPDEST SWAP8 DUP8 PUSH1 0x20 DUP8 ADD SWAP10 ADD CALLDATASIZE DUP11 CALLDATACOPY PUSH2 0x1789 DUP3 PUSH2 0x1586 JUMP JUMPDEST SWAP8 PUSH2 0x1797 PUSH1 0x40 MLOAD SWAP10 DUP11 PUSH2 0x13A8 JUMP JUMPDEST DUP3 DUP10 MSTORE PUSH2 0x17A3 DUP4 PUSH2 0x1586 JUMP JUMPDEST ADD CALLDATASIZE PUSH1 0x20 DUP11 ADD CALLDATACOPY PUSH1 0x0 SWAP11 PUSH1 0x0 JUMPDEST DUP4 DUP2 LT DUP1 PUSH2 0x1AB0 JUMPI JUMPDEST ISZERO PUSH2 0x19BF JUMPI PUSH1 0x0 DUP2 PUSH2 0x1920 JUMPI POP DUP8 DUP14 DUP11 DUP13 SWAP14 SWAP15 SWAP16 DUP1 PUSH1 0x64 SWAP14 SWAP15 SWAP14 DUP13 DIV SWAP14 PUSH2 0x180E SWAP6 DUP16 SWAP5 PUSH2 0x1808 SWAP5 PUSH2 0x1802 SWAP2 JUMPDEST PUSH1 0x1 PUSH1 0x1 PUSH1 0xA0 SHL SUB SWAP1 PUSH2 0x17F9 SWAP1 DUP13 SWAP1 PUSH2 0x159E JUMP JUMPDEST MLOAD MLOAD AND SWAP3 PUSH2 0x159E JUMP JUMPDEST MSTORE PUSH2 0x159E JUMP JUMPDEST MSTORE PUSH2 0x1297 JUMP JUMPDEST SWAP9 DUP1 PUSH2 0x182A JUMPI JUMPDEST POP PUSH2 0x181F SWAP1 PUSH2 0x1297 JUMP JUMPDEST SWAP12 SWAP11 SWAP10 SWAP9 SWAP8 SWAP12 PUSH2 0x17B0 JUMP JUMPDEST PUSH2 0x1876 PUSH1 0x20 PUSH1 0x1 PUSH1 0x1 PUSH1 0xA0 SHL SUB PUSH2 0x1841 DUP6 DUP16 PUSH2 0x159E JUMP JUMPDEST MLOAD MLOAD AND SWAP3 PUSH1 0x40 MLOAD DUP1 SWAP4 DUP2 SWAP3 PUSH4 0xA9059CBB PUSH1 0xE0 SHL DUP4 MSTORE PUSH1 0x4 SWAP7 DUP8 DUP5 ADD PUSH1 0x20 SWAP1 SWAP4 SWAP3 SWAP2 SWAP4 PUSH1 0x40 DUP2 ADD SWAP5 PUSH1 0x1 DUP1 PUSH1 0xA0 SHL SUB AND DUP2 MSTORE ADD MSTORE JUMP JUMPDEST SUB DUP2 PUSH1 0x0 PUSH32 0x0 PUSH1 0x1 PUSH1 0x1 PUSH1 0xA0 SHL SUB AND GAS CALL SWAP1 DUP2 ISZERO PUSH2 0x1914 JUMPI PUSH1 0x0 SWAP2 PUSH2 0x18F5 JUMPI JUMPDEST POP PUSH2 0x1815 JUMPI DUP14 SWAP1 PUSH1 0x20 PUSH1 0x40 MLOAD SWAP2 PUSH3 0x461BCD PUSH1 0xE5 SHL DUP4 MSTORE DUP3 ADD MSTORE PUSH1 0x15 PUSH1 0x24 DUP3 ADD MSTORE PUSH21 0x141C9A5E99481D1C985B9CD9995C8819985A5B1959 PUSH1 0x5A SHL PUSH1 0x44 DUP3 ADD MSTORE REVERT JUMPDEST PUSH2 0x190E SWAP2 POP PUSH1 0x20 RETURNDATASIZE PUSH1 0x20 GT PUSH2 0x424 JUMPI PUSH2 0x416 DUP2 DUP4 PUSH2 0x13A8 JUMP JUMPDEST CODESIZE PUSH2 0x18B5 JUMP JUMPDEST PUSH1 0x40 MLOAD RETURNDATASIZE PUSH1 0x0 DUP3 RETURNDATACOPY RETURNDATASIZE SWAP1 REVERT JUMPDEST PUSH1 0x1 DUP3 SUB PUSH2 0x194C JUMPI POP DUP8 DUP14 DUP11 DUP13 SWAP14 SWAP15 SWAP16 DUP1 PUSH1 0x64 SWAP14 SWAP15 SWAP14 DUP12 DIV SWAP14 PUSH2 0x180E SWAP6 DUP16 SWAP5 PUSH2 0x1808 SWAP5 PUSH2 0x1802 SWAP2 PUSH2 0x17E5 JUMP JUMPDEST PUSH1 0x2 DUP3 SUB PUSH2 0x1975 JUMPI POP DUP8 DUP14 DUP11 DUP13 SWAP14 SWAP15 SWAP16 DUP1 DUP10 SWAP15 SWAP14 SWAP15 SWAP14 PUSH2 0x180E SWAP6 DUP16 SWAP5 PUSH2 0x1808 SWAP5 PUSH2 0x1802 SWAP2 PUSH2 0x17E5 JUMP JUMPDEST PUSH1 0x2 NOT DUP6 ADD SWAP1 DUP6 DUP3 GT PUSH2 0x1466 JUMPI DUP2 ISZERO PUSH2 0x19AB JUMPI POP DUP14 DUP11 DUP13 SWAP14 SWAP15 SWAP16 DUP1 DUP13 SWAP5 SWAP14 SWAP15 SWAP14 DUP9 DIV SWAP14 PUSH2 0x180E SWAP6 DUP16 SWAP5 PUSH2 0x1808 SWAP5 PUSH2 0x1802 SWAP2 PUSH2 0x17E5 JUMP JUMPDEST PUSH4 0x4E487B71 PUSH1 0xE0 SHL DUP2 MSTORE PUSH1 0x12 PUSH1 0x4 MSTORE PUSH1 0x24 SWAP1 REVERT JUMPDEST POP SWAP11 POP POP POP POP POP POP SWAP4 POP POP SWAP1 PUSH2 0x100 PUSH2 0xFFFF NOT PUSH1 0x8 SLOAD AND OR PUSH1 0x8 SSTORE PUSH1 0x3 SLOAD PUSH1 0x40 MLOAD SWAP4 PUSH1 0x60 DUP6 ADD SWAP2 DUP6 MSTORE PUSH1 0x60 PUSH1 0x20 DUP7 ADD MSTORE MLOAD DUP1 SWAP2 MSTORE PUSH1 0x80 DUP5 ADD SWAP2 SWAP1 PUSH1 0x0 JUMPDEST DUP2 DUP2 LT PUSH2 0x1A91 JUMPI POP POP POP DUP3 DUP2 SUB PUSH1 0x40 DUP5 ADD MSTORE PUSH1 0x20 DUP1 DUP4 MLOAD SWAP3 DUP4 DUP2 MSTORE ADD SWAP3 ADD SWAP1 PUSH1 0x0 JUMPDEST DUP2 DUP2 LT PUSH2 0x1A7B JUMPI POP POP POP SWAP1 DUP1 PUSH32 0xEC92DCCF4A03653BC1A3D85019574BF62A659C47575779A889806684783B9E5C SWAP3 SUB SWAP1 LOG1 PUSH32 0x6FEC84C120BD2F6CA3672E03149381CB6BD1BF38D8442F598E8FA9820A53991E PUSH1 0x20 PUSH1 0x40 MLOAD TIMESTAMP DUP2 MSTORE LOG1 JUMP JUMPDEST DUP3 MLOAD DUP5 MSTORE PUSH1 0x20 SWAP4 DUP5 ADD SWAP4 SWAP1 SWAP3 ADD SWAP2 PUSH1 0x1 ADD PUSH2 0x1A1E JUMP JUMPDEST DUP3 MLOAD PUSH1 0x1 PUSH1 0x1 PUSH1 0xA0 SHL SUB AND DUP5 MSTORE PUSH1 0x20 SWAP4 DUP5 ADD SWAP4 SWAP1 SWAP3 ADD SWAP2 PUSH1 0x1 ADD PUSH2 0x19FC JUMP JUMPDEST POP PUSH1 0xA DUP2 LT PUSH2 0x17B9 JUMP JUMPDEST SWAP3 POP POP POP PUSH2 0x100 SWAP2 SWAP3 POP PUSH2 0xFFFF NOT AND OR PUSH1 0x8 SSTORE PUSH32 0x6FEC84C120BD2F6CA3672E03149381CB6BD1BF38D8442F598E8FA9820A53991E PUSH1 0x20 PUSH1 0x40 MLOAD TIMESTAMP DUP2 MSTORE LOG1 JUMP JUMPDEST PUSH2 0x1B02 DUP2 PUSH2 0x12BC JUMP JUMPDEST PUSH1 0x1 DUP1 PUSH1 0xA0 SHL SUB SWAP2 SLOAD SWAP1 PUSH1 0x3 SHL SHR AND DUP1 PUSH1 0x0 MSTORE PUSH1 0x20 PUSH1 0x9 DUP2 MSTORE PUSH1 0x40 PUSH1 0x0 KECCAK256 DUP5 PUSH1 0x1 DUP3 ADD SLOAD AND PUSH2 0x1B37 JUMPI JUMPDEST POP POP POP PUSH1 0x1 ADD PUSH2 0x1622 JUMP JUMPDEST SWAP2 PUSH1 0x1 SWAP4 SWAP9 SWAP2 PUSH2 0x1B70 SWAP4 SLOAD SWAP1 PUSH1 0x40 MLOAD SWAP3 PUSH2 0x1B50 DUP5 PUSH2 0x138C JUMP JUMPDEST DUP4 MSTORE DUP3 ADD MSTORE PUSH2 0x1B5F DUP3 DUP14 PUSH2 0x159E JUMP JUMPDEST MSTORE PUSH2 0x1B6A DUP2 DUP13 PUSH2 0x159E JUMP JUMPDEST POP PUSH2 0x1297 JUMP JUMPDEST SWAP6 SWAP1 CODESIZE DUP1 PUSH2 0x1B2C JUMP JUMPDEST PUSH1 0x20 SWAP1 PUSH1 0x40 MLOAD PUSH2 0x1B88 DUP2 PUSH2 0x138C JUMP JUMPDEST PUSH1 0x0 DUP2 MSTORE DUP3 PUSH1 0x0 DUP2 DUP4 ADD MSTORE DUP3 DUP13 ADD ADD MSTORE ADD PUSH2 0x1614 JUMP JUMPDEST PUSH1 0x40 MLOAD PUSH3 0x461BCD PUSH1 0xE5 SHL DUP2 MSTORE PUSH1 0x20 PUSH1 0x4 DUP3 ADD MSTORE PUSH1 0xD PUSH1 0x24 DUP3 ADD MSTORE PUSH13 0x139BC81C1C9A5E99481C1BDBDB PUSH1 0x9A SHL PUSH1 0x44 DUP3 ADD MSTORE PUSH1 0x64 SWAP1 REVERT JUMPDEST PUSH1 0x40 MLOAD PUSH3 0x461BCD PUSH1 0xE5 SHL DUP2 MSTORE PUSH1 0x20 PUSH1 0x4 DUP3 ADD MSTORE PUSH1 0x1A PUSH1 0x24 DUP3 ADD MSTORE PUSH32 0x5072697A657320616C7265616479206469737472696275746564000000000000 PUSH1 0x44 DUP3 ADD MSTORE PUSH1 0x64 SWAP1 REVERT JUMPDEST ISZERO PUSH2 0x1C1F JUMPI JUMP JUMPDEST PUSH1 0x40 MLOAD PUSH3 0x461BCD PUSH1 0xE5 SHL DUP2 MSTORE PUSH1 0x20 PUSH1 0x4 DUP3 ADD MSTORE PUSH1 0x17 PUSH1 0x24 DUP3 ADD MSTORE PUSH32 0x53636F726520616C7265616479207375626D6974746564000000000000000000 PUSH1 0x44 DUP3 ADD MSTORE PUSH1 0x64 SWAP1 REVERT JUMPDEST SWAP1 PUSH1 0x40 MLOAD PUSH2 0x1C71 DUP2 PUSH2 0x135A JUMP JUMPDEST PUSH1 0x40 PUSH1 0x2 DUP3 SWAP5 DUP1 SLOAD DUP5 MSTORE PUSH1 0xFF PUSH1 0x1 DUP3 ADD SLOAD AND ISZERO ISZERO PUSH1 0x20 DUP6 ADD MSTORE ADD SLOAD SWAP2 ADD MSTORE JUMP JUMPDEST PUSH1 0x1 SLOAD PUSH1 0x1 PUSH1 0x1 PUSH1 0xA0 SHL SUB AND CALLER SUB PUSH2 0x1CA5 JUMPI JUMP JUMPDEST PUSH1 0x40 MLOAD PUSH4 0x118CDAA7 PUSH1 0xE0 SHL DUP2 MSTORE CALLER PUSH1 0x4 DUP3 ADD MSTORE PUSH1 0x24 SWAP1 REVERT JUMPDEST PUSH1 0x2 PUSH1 0x0 SLOAD EQ PUSH2 0x1CCE JUMPI PUSH1 0x2 PUSH1 0x0 SSTORE JUMP JUMPDEST PUSH1 0x40 MLOAD PUSH4 0x3EE5AEB5 PUSH1 0xE0 SHL DUP2 MSTORE PUSH1 0x4 SWAP1 REVERT INVALID LOG2 PUSH5 0x6970667358 0x22 SLT KECCAK256 CREATE2 SWAP4 DIV SWAP6 PC LOG0 MUL COINBASE PUSH32 0x3169261B769E986DBAE75778D9B2EED142E71886F43F2C64736F6C6343000819 STOP CALLER "},"methodIdentifiers":{"ENTRY_FEE()":"f6d361cc","PLATFORM_FEE_BPS()":"539aa77f","currentSession()":"d4166763","distributePrizes()":"7ce52eb6","emergencyWithdraw()":"db2e21bc","getPlayerScore(address)":"e085c539","getSessionInfo()":"9463b1cd","getTrialPlayerScore(string)":"d082e23f","joinBattle()":"97794bf4","joinTrialBattle(string)":"264eab0e","owner()":"8da5cb5b","platformFeeRecipient()":"eb13554f","renounceOwnership()":"715018a6","startSession(uint256)":"77127612","submitScore(uint256)":"aff0b297","submitTrialScore(string,uint256)":"95607a95","transferOwnership(address)":"f2fde38b","updatePlatformFeeRecipient(address)":"f5fe7f71","usdcToken()":"11eac855"}}}}}