{
  "_format": "hh-sol-artifact-1",
  "contractName": "TriviaBattle",
  "sourceName": "contracts/TriviaBattle.sol",
  "abi": [
    {
      "inputs": [
        {
          "internalType": "address",
          "name": "_usdcToken",
          "type": "address"
        },
        {
          "internalType": "address",
          "name": "_platformFeeRecipient",
          "type": "address"
        }
      ],
      "stateMutability": "nonpayable",
      "type": "constructor"
    },
    {
      "inputs": [
        {
          "internalType": "address",
          "name": "owner",
          "type": "address"
        }
      ],
      "name": "OwnableInvalidOwner",
      "type": "error"
    },
    {
      "inputs": [
        {
          "internalType": "address",
          "name": "account",
          "type": "address"
        }
      ],
      "name": "OwnableUnauthorizedAccount",
      "type": "error"
    },
    {
      "inputs": [],
      "name": "ReentrancyGuardReentrantCall",
      "type": "error"
    },
    {
      "anonymous": false,
      "inputs": [
        {
          "indexed": true,
          "internalType": "address",
          "name": "previousOwner",
          "type": "address"
        },
        {
          "indexed": true,
          "internalType": "address",
          "name": "newOwner",
          "type": "address"
        }
      ],
      "name": "OwnershipTransferred",
      "type": "event"
    },
    {
      "anonymous": false,
      "inputs": [
        {
          "indexed": false,
          "internalType": "uint256",
          "name": "amount",
          "type": "uint256"
        },
        {
          "indexed": true,
          "internalType": "address",
          "name": "recipient",
          "type": "address"
        }
      ],
      "name": "PlatformFeeCollected",
      "type": "event"
    },
    {
      "anonymous": false,
      "inputs": [
        {
          "indexed": true,
          "internalType": "address",
          "name": "oldRecipient",
          "type": "address"
        },
        {
          "indexed": true,
          "internalType": "address",
          "name": "newRecipient",
          "type": "address"
        }
      ],
      "name": "PlatformFeeRecipientUpdated",
      "type": "event"
    },
    {
      "anonymous": false,
      "inputs": [
        {
          "indexed": true,
          "internalType": "address",
          "name": "player",
          "type": "address"
        },
        {
          "indexed": false,
          "internalType": "uint256",
          "name": "entryFee",
          "type": "uint256"
        },
        {
          "indexed": false,
          "internalType": "uint256",
          "name": "platformFee",
          "type": "uint256"
        }
      ],
      "name": "PlayerJoined",
      "type": "event"
    },
    {
      "anonymous": false,
      "inputs": [
        {
          "indexed": false,
          "internalType": "uint256",
          "name": "sessionId",
          "type": "uint256"
        },
        {
          "indexed": false,
          "internalType": "address[]",
          "name": "winners",
          "type": "address[]"
        },
        {
          "indexed": false,
          "internalType": "uint256[]",
          "name": "amounts",
          "type": "uint256[]"
        }
      ],
      "name": "PrizesDistributed",
      "type": "event"
    },
    {
      "anonymous": false,
      "inputs": [
        {
          "indexed": true,
          "internalType": "address",
          "name": "player",
          "type": "address"
        },
        {
          "indexed": false,
          "internalType": "uint256",
          "name": "score",
          "type": "uint256"
        },
        {
          "indexed": false,
          "internalType": "uint256",
          "name": "timestamp",
          "type": "uint256"
        }
      ],
      "name": "ScoreSubmitted",
      "type": "event"
    },
    {
      "anonymous": false,
      "inputs": [
        {
          "indexed": false,
          "internalType": "uint256",
          "name": "endTime",
          "type": "uint256"
        }
      ],
      "name": "SessionEnded",
      "type": "event"
    },
    {
      "anonymous": false,
      "inputs": [
        {
          "indexed": false,
          "internalType": "uint256",
          "name": "startTime",
          "type": "uint256"
        },
        {
          "indexed": false,
          "internalType": "uint256",
          "name": "duration",
          "type": "uint256"
        }
      ],
      "name": "SessionStarted",
      "type": "event"
    },
    {
      "anonymous": false,
      "inputs": [
        {
          "indexed": true,
          "internalType": "string",
          "name": "sessionId",
          "type": "string"
        }
      ],
      "name": "TrialPlayerJoined",
      "type": "event"
    },
    {
      "anonymous": false,
      "inputs": [
        {
          "indexed": true,
          "internalType": "string",
          "name": "sessionId",
          "type": "string"
        },
        {
          "indexed": false,
          "internalType": "uint256",
          "name": "score",
          "type": "uint256"
        },
        {
          "indexed": false,
          "internalType": "uint256",
          "name": "timestamp",
          "type": "uint256"
        }
      ],
      "name": "TrialScoreSubmitted",
      "type": "event"
    },
    {
      "inputs": [],
      "name": "ENTRY_FEE",
      "outputs": [
        {
          "internalType": "uint256",
          "name": "",
          "type": "uint256"
        }
      ],
      "stateMutability": "view",
      "type": "function"
    },
    {
      "inputs": [],
      "name": "PLATFORM_FEE_BPS",
      "outputs": [
        {
          "internalType": "uint256",
          "name": "",
          "type": "uint256"
        }
      ],
      "stateMutability": "view",
      "type": "function"
    },
    {
      "inputs": [],
      "name": "currentSession",
      "outputs": [
        {
          "internalType": "uint256",
          "name": "startTime",
          "type": "uint256"
        },
        {
          "internalType": "uint256",
          "name": "endTime",
          "type": "uint256"
        },
        {
          "internalType": "uint256",
          "name": "prizePool",
          "type": "uint256"
        },
        {
          "internalType": "uint256",
          "name": "paidPlayerCount",
          "type": "uint256"
        },
        {
          "internalType": "uint256",
          "name": "trialPlayerCount",
          "type": "uint256"
        },
        {
          "internalType": "bool",
          "name": "isActive",
          "type": "bool"
        },
        {
          "internalType": "bool",
          "name": "prizesDistributed",
          "type": "bool"
        }
      ],
      "stateMutability": "view",
      "type": "function"
    },
    {
      "inputs": [],
      "name": "distributePrizes",
      "outputs": [],
      "stateMutability": "nonpayable",
      "type": "function"
    },
    {
      "inputs": [],
      "name": "emergencyWithdraw",
      "outputs": [],
      "stateMutability": "nonpayable",
      "type": "function"
    },
    {
      "inputs": [
        {
          "internalType": "address",
          "name": "player",
          "type": "address"
        }
      ],
      "name": "getPlayerScore",
      "outputs": [
        {
          "internalType": "uint256",
          "name": "score",
          "type": "uint256"
        },
        {
          "internalType": "bool",
          "name": "hasSubmitted",
          "type": "bool"
        },
        {
          "internalType": "uint256",
          "name": "submissionTime",
          "type": "uint256"
        }
      ],
      "stateMutability": "view",
      "type": "function"
    },
    {
      "inputs": [],
      "name": "getSessionInfo",
      "outputs": [
        {
          "internalType": "uint256",
          "name": "startTime",
          "type": "uint256"
        },
        {
          "internalType": "uint256",
          "name": "endTime",
          "type": "uint256"
        },
        {
          "internalType": "uint256",
          "name": "prizePool",
          "type": "uint256"
        },
        {
          "internalType": "uint256",
          "name": "paidPlayerCount",
          "type": "uint256"
        },
        {
          "internalType": "uint256",
          "name": "trialPlayerCount",
          "type": "uint256"
        },
        {
          "internalType": "bool",
          "name": "isActive",
          "type": "bool"
        },
        {
          "internalType": "bool",
          "name": "prizesDistributed",
          "type": "bool"
        }
      ],
      "stateMutability": "view",
      "type": "function"
    },
    {
      "inputs": [
        {
          "internalType": "string",
          "name": "sessionId",
          "type": "string"
        }
      ],
      "name": "getTrialPlayerScore",
      "outputs": [
        {
          "internalType": "uint256",
          "name": "score",
          "type": "uint256"
        },
        {
          "internalType": "bool",
          "name": "hasSubmitted",
          "type": "bool"
        },
        {
          "internalType": "uint256",
          "name": "submissionTime",
          "type": "uint256"
        }
      ],
      "stateMutability": "view",
      "type": "function"
    },
    {
      "inputs": [],
      "name": "joinBattle",
      "outputs": [],
      "stateMutability": "nonpayable",
      "type": "function"
    },
    {
      "inputs": [
        {
          "internalType": "string",
          "name": "sessionId",
          "type": "string"
        }
      ],
      "name": "joinTrialBattle",
      "outputs": [],
      "stateMutability": "nonpayable",
      "type": "function"
    },
    {
      "inputs": [],
      "name": "owner",
      "outputs": [
        {
          "internalType": "address",
          "name": "",
          "type": "address"
        }
      ],
      "stateMutability": "view",
      "type": "function"
    },
    {
      "inputs": [],
      "name": "platformFeeRecipient",
      "outputs": [
        {
          "internalType": "address",
          "name": "",
          "type": "address"
        }
      ],
      "stateMutability": "view",
      "type": "function"
    },
    {
      "inputs": [],
      "name": "renounceOwnership",
      "outputs": [],
      "stateMutability": "nonpayable",
      "type": "function"
    },
    {
      "inputs": [
        {
          "internalType": "uint256",
          "name": "duration",
          "type": "uint256"
        }
      ],
      "name": "startSession",
      "outputs": [],
      "stateMutability": "nonpayable",
      "type": "function"
    },
    {
      "inputs": [
        {
          "internalType": "uint256",
          "name": "score",
          "type": "uint256"
        }
      ],
      "name": "submitScore",
      "outputs": [],
      "stateMutability": "nonpayable",
      "type": "function"
    },
    {
      "inputs": [
        {
          "internalType": "string",
          "name": "sessionId",
          "type": "string"
        },
        {
          "internalType": "uint256",
          "name": "score",
          "type": "uint256"
        }
      ],
      "name": "submitTrialScore",
      "outputs": [],
      "stateMutability": "nonpayable",
      "type": "function"
    },
    {
      "inputs": [
        {
          "internalType": "address",
          "name": "newOwner",
          "type": "address"
        }
      ],
      "name": "transferOwnership",
      "outputs": [],
      "stateMutability": "nonpayable",
      "type": "function"
    },
    {
      "inputs": [
        {
          "internalType": "address",
          "name": "_newRecipient",
          "type": "address"
        }
      ],
      "name": "updatePlatformFeeRecipient",
      "outputs": [],
      "stateMutability": "nonpayable",
      "type": "function"
    },
    {
      "inputs": [],
      "name": "usdcToken",
      "outputs": [
        {
          "internalType": "contract IERC20",
          "name": "",
          "type": "address"
        }
      ],
      "stateMutability": "view",
      "type": "function"
    }
  ],
  "bytecode": "0x60a0346100ff57601f611e4538819003918201601f19168301916001600160401b038311848410176101045780849260409485528339810103126100ff57610052602061004b8361011a565b920161011a565b90600160005533156100e65760018054336001600160a01b031980831682179093556040519492936001600160a01b03939284929083167f8be0079c531659141344cd1fd0a4f28419497f9722a3daafe3b4186f6b6457e0600080a31660805216906002541617600255611d16908161012f8239608051818181610338015281816106c501528181611177015261187c0152f35b604051631e4fbdf760e01b815260006004820152602490fd5b600080fd5b634e487b7160e01b600052604160045260246000fd5b51906001600160a01b03821682036100ff5756fe608060408181526004918236101561001657600080fd5b600092833560e01c91826311eac8551461116357508163264eab0e14610e4a578163539aa77f14610e2e578163715018a614610dd15781637712761214610bc95781637ce52eb614610b3f5781638da5cb5b14610b165781639463b1cd146104ab57816395607a951461099d57816397794bf41461065a578163aff0b29714610560578163d082e23f1461050e578163d4166763146104ab578163db2e21bc146102fe578163e085c5391461029c578163eb13554f14610273578163f2fde38b146101df578163f5fe7f7114610116575063f6d361cc146100f657600080fd5b3461011257816003193601126101125760209051620f42408152f35b5080fd5b919050346101db5760203660031901126101db576001600160a01b038235818116939192908490036101d75761014a611c91565b8315610194575050600254826bffffffffffffffffffffffff60a01b821617600255167faf04973bb8004e313cfd09017b963bee1e6f6ffb9be88c07a0c5ce5fafe934038380a380f35b906020606492519162461bcd60e51b8352820152601960248201527f496e76616c696420726563697069656e742061646472657373000000000000006044820152fd5b8480fd5b8280fd5b919050346101db5760203660031901126101db576001600160a01b038235818116939192908490036101d757610213611c91565b831561025d575050600154826bffffffffffffffffffffffff60a01b821617600155167f8be0079c531659141344cd1fd0a4f28419497f9722a3daafe3b4186f6b6457e08380a380f35b51631e4fbdf760e01b8152908101849052602490fd5b50503461011257816003193601126101125760025490516001600160a01b039091168152602090f35b8391503461011257602036600319011261011257356001600160a01b03811690819003610112578183916102d69352600960205220611c64565b8051602080830151928401519351918252911515918101919091526040810191909152606090f35b919050346101db57826003193601126101db57610319611c91565b80516370a0823160e01b81523083820152602091906001600160a01b037f00000000000000000000000000000000000000000000000000000000000000008116908483602481855afa9283156104a157879361046e575b50821561043557600154845163a9059cbb60e01b815291166001600160a01b03168682019081526020810193909352918491839182908990829060400103925af190811561042b5785916103fe575b50156103c9578380f35b5162461bcd60e51b815291820152601160248201527015da5d1a191c985dd85b0819985a5b1959607a1b604482015260649150fd5b61041e9150833d8511610424575b61041681836113a8565b8101906115b2565b386103bf565b503d61040c565b82513d87823e3d90fd5b835162461bcd60e51b815280870186905260136024820152724e6f205553444320746f20776974686472617760681b6044820152606490fd5b9092508481813d831161049a575b61048681836113a8565b8101031261049657519138610370565b8680fd5b503d61047c565b84513d89823e3d90fd5b82843461050b578060031936011261050b57506003549154600554600654600754600880549551968752602087019490945260408601929092526060850152608084015260ff808316151560a085015291901c16151560c082015260e090f35b80fd5b9050823461050b57602036600319011261050b5781359067ffffffffffffffff821161050b57506105476102d6926020923691016111a6565b919082855193849283378101600a815203019020611c64565b919050346101db576020806003193601126106565782359261058660ff600854166111d9565b610594600354421015611219565b6105a1815442111561125b565b3385526009825282852054156106215750907fb7f20d0949b6a8bc59d005af4a52f7ff5d0cfcde9056fa556adb0e4b24dcb6d291338552600981526105ef60ff600184882001541615611c18565b3385526009815281852084815560018101600160ff19825416179055600242910155815193845242908401523392a280f35b915162461bcd60e51b8152918201526011602482015270141b185e595c881b9bdd081a9bda5b9959607a1b6044820152606490fd5b8380fd5b919050346101db57826003193601126101db57610675611cbd565b3383526020600981528184205461096b5760ff600854161561095e575b6106a060ff600854166111d9565b6106ae600354421015611219565b6106bb835442111561125b565b60018060a01b03807f000000000000000000000000000000000000000000000000000000000000000016938351946323b872dd60e01b865233828701526024903082880152620f42409687604482015285816064818c865af19081156108fe578991610941575b501561090857836002541680610834575b5050600554620ee098810180911161082257600555610753600654611297565b600655600b5491600160401b831015610811575050916161a89161079f8460017fc9b3932fab18f6ac6d50cac9682ed0c164ce31d2505f3571323a0cf5902dd68c979601600b556112bc565b819291549060031b9133831b921b19161790556107ff83516107c08161135a565b878152878382015287858201523388526009835284882090604060029180518455600184016020820151151560ff801983541691161790550151910155565b82519485528401523392a26001815580f35b634e487b7160e01b88526041905286fd5b50634e487b7160e01b87526011825286fd5b86519063a9059cbb60e01b82528482015285816044818c6161a89687898401525af19081156108fe5789916108e1575b501561089f577fcf1bd34e586f4e12ef1c4c84c337b05dd3f7fc5409e16c5fea9063524eb77022858560025416928851908152a23880610733565b855162461bcd60e51b8152808401869052601c818401527f506c6174666f726d20666565207472616e73666572206661696c6564000000006044820152606490fd5b6108f89150863d88116104245761041681836113a8565b38610864565b87513d8b823e3d90fd5b855162461bcd60e51b8152808401869052601481840152731554d110c81d1c985b9cd9995c8819985a5b195960621b6044820152606490fd5b6109589150863d88116104245761041681836113a8565b38610722565b6109666113ca565b610692565b905162461bcd60e51b815291820152600e60248201526d105b1c9958591e481a9bda5b995960921b6044820152606490fd5b83915034610112578260031936011261011257803567ffffffffffffffff81116101db576109ce90369083016111a6565b602494919435906109e360ff600854166111d9565b6109f1600354421015611219565b6109fe845442111561125b565b8251938187863784828101600a81526020968791030190205415610ad357507fbd6ca4b35a8166766cbd9f87f743edb98a23e3033ee5995dbe8f750279db9aae939495610a6460ff60018651858582378981878101600a81520301902001541615611c18565b828451838382378781858101600a8152030190205560018451838382378781858101600a81520301902001600160ff19825416179055835182828237600283820191600a835288814294030190200155818451928392833781018781520390209382519182524290820152a280f35b835162461bcd60e51b8152908101859052601760248201527f547269616c20706c61796572206e6f74206a6f696e65640000000000000000006044820152606490fd5b50503461011257816003193601126101125760015490516001600160a01b039091168152602090f35b919050346101db57826003193601126101db57610b5a611c91565b60ff60085416158015610bbf575b15610b855782610b76611cbd565b610b7e6115ca565b6001815580f35b906020606492519162461bcd60e51b8352820152601460248201527353657373696f6e207374696c6c2061637469766560601b6044820152fd5b5081544211610b68565b838334610112576020806003193601126101db57833590610be8611c91565b60ff60085416610d95578115610d5f5783600355838555600584600555846006558460075584600855600b5485600b5580610d1d575b50600c549185600c5582610c92575b50505042600355804201804211610c7f577fce6cbe3431d9ec9ac1a82a77a80bb9120b0250307afb3ed08873ea84c52b70c0939455600161ffff1960085416176008558151904282526020820152a180f35b634e487b7160e01b845260118552602484fd5b600c86527fdf6966c971051c3d54ec59162606531493a51404a002842f56009d7e5cf4a8c7928301925b838110610cc95750610c2d565b8087610cd760019354611309565b80610ce5575b505001610cbc565b601f8082118514610cfc57505081555b878a610cdd565b610d14908484528684209201871c8201858301611343565b81835555610cf5565b600b86527f0175b7a638427703f0dbe7bb9bbf987a2551717b34e79f33b5b1008d1fa01db9908101905b818110610d545750610c1e565b868155600101610d47565b825162461bcd60e51b8152602081870152601060248201526f24b73b30b634b210323ab930ba34b7b760811b6044820152606490fd5b825162461bcd60e51b8152602081870152601660248201527553657373696f6e20616c72656164792061637469766560501b6044820152606490fd5b833461050b578060031936011261050b57610dea611c91565b600180546001600160a01b0319811690915581906001600160a01b03167f8be0079c531659141344cd1fd0a4f28419497f9722a3daafe3b4186f6b6457e08280a380f35b5050346101125781600319360112610112576020905160fa8152f35b83833461011257602090816003193601126101db5767ffffffffffffffff9084358281116101d757610e7f90369087016111a6565b939092841561112b578251858582378281878101600a815203019020546110e85760ff60085416156110db575b610eba60ff600854166111d9565b610ec8600354421015611219565b610ed5875442111561125b565b610ee0600754611297565b600755600c54600160401b8110156110b5576001906001810180600c558110156110c857600c88527fdf6966c971051c3d54ec59162606531493a51404a002842f56009d7e5cf4a8c7019186116110b5579085939291610f408254611309565b601f811161107c575b508790601f861160011461100e57509084610fce93928991611003575b508560011b906000198760031b1c19161790555b825190610f868261135a565b878252878183015287848301528351908587833781868101600a81520301902090604060029180518455600184016020820151151560ff801983541691161790550151910155565b51928392833781018381520390207f93a1dfbf47c62f8886f8594f34973102da8b27ce9a0206226a3957bd9ee777d78280a280f35b905086013589610f66565b828952838920601f198716969594939290918a905b88821061106257505085610fce95969710611048575b5050600185811b019055610f7a565b870135600019600388901b60f8161c191690558880611039565b8983013584558a9750928301929185019190850190611023565b6110a590838a52848a20601f880160051c8101918689106110ab575b601f0160051c0190611343565b88610f49565b9091508190611098565b634e487b7160e01b875260418852602487fd5b634e487b7160e01b885260328952602488fd5b6110e36113ca565b610eac565b825162461bcd60e51b8152808801839052601760248201527f53657373696f6e20494420616c726561647920757365640000000000000000006044820152606490fd5b825162461bcd60e51b81528088018390526012602482015271125b9d985b1a59081cd95cdcda5bdb88125160721b6044820152606490fd5b8490346101125781600319360112610112577f00000000000000000000000000000000000000000000000000000000000000006001600160a01b03168152602090f35b9181601f840112156111d45782359167ffffffffffffffff83116111d457602083818601950101116111d457565b600080fd5b156111e057565b60405162461bcd60e51b815260206004820152601160248201527027379030b1ba34bb329039b2b9b9b4b7b760791b6044820152606490fd5b1561122057565b60405162461bcd60e51b815260206004820152601360248201527214d95cdcda5bdb881b9bdd081cdd185c9d1959606a1b6044820152606490fd5b1561126257565b60405162461bcd60e51b815260206004820152600d60248201526c14d95cdcda5bdb88195b991959609a1b6044820152606490fd5b60001981146112a65760010190565b634e487b7160e01b600052601160045260246000fd5b600b548110156112f357600b6000527f0175b7a638427703f0dbe7bb9bbf987a2551717b34e79f33b5b1008d1fa01db90190600090565b634e487b7160e01b600052603260045260246000fd5b90600182811c92168015611339575b602083101461132357565b634e487b7160e01b600052602260045260246000fd5b91607f1691611318565b81811061134e575050565b60008155600101611343565b6060810190811067ffffffffffffffff82111761137657604052565b634e487b7160e01b600052604160045260246000fd5b6040810190811067ffffffffffffffff82111761137657604052565b90601f8019910116810190811067ffffffffffffffff82111761137657604052565b60ff600854166115485760008060035580600455600581600555816006558160075581600855600b5482600b5580611506575b50600c549082600c558161147a575b50504260035561012c908142019081421161146657507fce6cbe3431d9ec9ac1a82a77a80bb9120b0250307afb3ed08873ea84c52b70c091604091600455600161ffff1960085416176008558151904282526020820152a1565b634e487b7160e01b81526011600452602490fd5b600c83527fdf6966c971051c3d54ec59162606531493a51404a002842f56009d7e5cf4a8c7918201915b8281106114b1575061140c565b80846114bf60019354611309565b806114cd575b5050016114a4565b601f80821185146114e457505081555b84386114c5565b6114fd90848452602084209201861c8201858301611343565b818355556114dd565b600b83527f0175b7a638427703f0dbe7bb9bbf987a2551717b34e79f33b5b1008d1fa01db9908101905b81811061153d57506113fd565b838155600101611530565b60405162461bcd60e51b815260206004820152601660248201527553657373696f6e20616c72656164792061637469766560501b6044820152606490fd5b67ffffffffffffffff81116113765760051b60200190565b80518210156112f35760209160051b010190565b908160209103126111d4575180151581036111d45790565b6008549060ff808360081c16611bd357600554908115611b9e57600b54916115f183611586565b946115ff60405196876113a8565b838652601f19938461161082611586565b0160005b818110611b79575050600093845b828110611af9575050508215611aba57506000939293925b600019948386018481116112a6578510156116fe5760005b8585038581116112a6578781019081116112a6578110156116f0576020908161167b828b61159e565b51015160018201908183116112a657600193611697838d61159e565b510151116116a7575b5001611652565b6116e9906116b5838c61159e565b518b6116cc856116c5858461159e565b519261159e565b526116d7848d61159e565b506116e2828d61159e565b528a61159e565b50386116a0565b50945060019093019261163a565b935090935093909360328402948486046032036112a657606495601e8602868104601e036112a657600f8702878104600f036112a6576064900496600581029081046005036112a657606490989796959498049561175b84611586565b9361176960405195866113a8565b80855261177581611586565b9787602087019901368a3761178982611586565b97611797604051998a6113a8565b8289526117a383611586565b013660208a013760009a60005b83811080611ab0575b156119bf576000816119205750878d8a8c9d9e9f8060649d9e9d8c049d61180e958f9461180894611802915b6001600160a01b03906117f9908c9061159e565b5151169261159e565b5261159e565b52611297565b988061182a575b5061181f90611297565b9b9a9998979b6117b0565b61187660206001600160a01b03611841858f61159e565b515116926040518093819263a9059cbb60e01b835260049687840160209093929193604081019460018060a01b031681520152565b038160007f00000000000000000000000000000000000000000000000000000000000000006001600160a01b03165af1908115611914576000916118f5575b50611815578d9060206040519162461bcd60e51b83528201526015602482015274141c9a5e99481d1c985b9cd9995c8819985a5b1959605a1b6044820152fd5b61190e915060203d6020116104245761041681836113a8565b386118b5565b6040513d6000823e3d90fd5b6001820361194c5750878d8a8c9d9e9f8060649d9e9d8b049d61180e958f9461180894611802916117e5565b600282036119755750878d8a8c9d9e9f80899e9d9e9d61180e958f9461180894611802916117e5565b6002198501908582116114665781156119ab57508d8a8c9d9e9f808c949d9e9d88049d61180e958f9461180894611802916117e5565b634e487b7160e01b81526012600452602490fd5b509a5050505050509350509061010061ffff1960085416176008556003546040519360608501918552606060208601525180915260808401919060005b818110611a915750505082810360408401526020808351928381520192019060005b818110611a7b5750505090807fec92dccf4a03653bc1a3d85019574bf62a659c47575779a889806684783b9e5c920390a17f6fec84c120bd2f6ca3672e03149381cb6bd1bf38d8442f598e8fa9820a53991e6020604051428152a1565b8251845260209384019390920191600101611a1e565b82516001600160a01b03168452602093840193909201916001016119fc565b50600a81106117b9565b9250505061010091925061ffff1916176008557f6fec84c120bd2f6ca3672e03149381cb6bd1bf38d8442f598e8fa9820a53991e6020604051428152a1565b611b02816112bc565b60018060a01b0391549060031b1c1680600052602060098152604060002084600182015416611b37575b505050600101611622565b916001939891611b7093549060405192611b508461138c565b8352820152611b5f828d61159e565b52611b6a818c61159e565b50611297565b95903880611b2c565b602090604051611b888161138c565b6000815282600081830152828c01015201611614565b60405162461bcd60e51b815260206004820152600d60248201526c139bc81c1c9a5e99481c1bdbdb609a1b6044820152606490fd5b60405162461bcd60e51b815260206004820152601a60248201527f5072697a657320616c72656164792064697374726962757465640000000000006044820152606490fd5b15611c1f57565b60405162461bcd60e51b815260206004820152601760248201527f53636f726520616c7265616479207375626d69747465640000000000000000006044820152606490fd5b90604051611c718161135a565b6040600282948054845260ff600182015416151560208501520154910152565b6001546001600160a01b03163303611ca557565b60405163118cdaa760e01b8152336004820152602490fd5b600260005414611cce576002600055565b604051633ee5aeb560e01b8152600490fdfea2646970667358221220f593049558a002417f3169261b769e986dbae75778d9b2eed142e71886f43f2c64736f6c63430008190033",
  "linkReferences": {},
  "deployedLinkReferences": {}
}