{
  "_format": "hh-sol-artifact-1",
  "contractName": "TriviaBattle",
  "sourceName": "contracts/TriviaBattle.sol",
  "abi": [
    {
      "inputs": [
        {
          "internalType": "address",
          "name": "_usdcAddress",
          "type": "address"
        },
        {
          "internalType": "address",
          "name": "_linkAddress",
          "type": "address"
        },
        {
          "internalType": "address",
          "name": "_chainlinkFunctionsAddress",
          "type": "address"
        },
        {
          "internalType": "address",
          "name": "_chainlinkOracle",
          "type": "address"
        },
        {
          "internalType": "uint256",
          "name": "_sessionInterval",
          "type": "uint256"
        },
        {
          "internalType": "uint256",
          "name": "_entryFee",
          "type": "uint256"
        }
      ],
      "stateMutability": "nonpayable",
      "type": "constructor"
    },
    {
      "inputs": [
        {
          "internalType": "address",
          "name": "owner",
          "type": "address"
        }
      ],
      "name": "OwnableInvalidOwner",
      "type": "error"
    },
    {
      "inputs": [
        {
          "internalType": "address",
          "name": "account",
          "type": "address"
        }
      ],
      "name": "OwnableUnauthorizedAccount",
      "type": "error"
    },
    {
      "inputs": [],
      "name": "ReentrancyGuardReentrantCall",
      "type": "error"
    },
    {
      "inputs": [
        {
          "internalType": "address",
          "name": "token",
          "type": "address"
        }
      ],
      "name": "SafeERC20FailedOperation",
      "type": "error"
    },
    {
      "inputs": [],
      "name": "TriviaBattle__AlreadyParticipated",
      "type": "error"
    },
    {
      "inputs": [],
      "name": "TriviaBattle__InsufficientEntryFee",
      "type": "error"
    },
    {
      "inputs": [],
      "name": "TriviaBattle__InsufficientUSDCBalance",
      "type": "error"
    },
    {
      "inputs": [],
      "name": "TriviaBattle__InvalidSessionInterval",
      "type": "error"
    },
    {
      "inputs": [],
      "name": "TriviaBattle__NoPendingWithdrawal",
      "type": "error"
    },
    {
      "inputs": [],
      "name": "TriviaBattle__NotEnoughPlayers",
      "type": "error"
    },
    {
      "inputs": [],
      "name": "TriviaBattle__SessionAlreadyActive",
      "type": "error"
    },
    {
      "inputs": [],
      "name": "TriviaBattle__SessionIntervalNotElapsed",
      "type": "error"
    },
    {
      "inputs": [],
      "name": "TriviaBattle__SessionNotActive",
      "type": "error"
    },
    {
      "inputs": [
        {
          "internalType": "uint256",
          "name": "releaseTime",
          "type": "uint256"
        }
      ],
      "name": "TriviaBattle__TimeLockActive",
      "type": "error"
    },
    {
      "inputs": [],
      "name": "TriviaBattle__Unauthorized",
      "type": "error"
    },
    {
      "inputs": [],
      "name": "TriviaBattle__WithdrawalAmountTooLow",
      "type": "error"
    },
    {
      "inputs": [],
      "name": "TriviaBattle__ZeroAddress",
      "type": "error"
    },
    {
      "anonymous": false,
      "inputs": [
        {
          "indexed": true,
          "internalType": "bytes32",
          "name": "requestId",
          "type": "bytes32"
        },
        {
          "indexed": true,
          "internalType": "address",
          "name": "sender",
          "type": "address"
        },
        {
          "indexed": false,
          "internalType": "string",
          "name": "functionName",
          "type": "string"
        }
      ],
      "name": "ChainlinkRequestSent",
      "type": "event"
    },
    {
      "anonymous": false,
      "inputs": [
        {
          "indexed": true,
          "internalType": "bytes32",
          "name": "requestId",
          "type": "bytes32"
        },
        {
          "indexed": false,
          "internalType": "bytes",
          "name": "response",
          "type": "bytes"
        },
        {
          "indexed": false,
          "internalType": "bytes",
          "name": "error",
          "type": "bytes"
        }
      ],
      "name": "ChainlinkResponseReceived",
      "type": "event"
    },
    {
      "anonymous": false,
      "inputs": [
        {
          "indexed": true,
          "internalType": "address",
          "name": "initiator",
          "type": "address"
        },
        {
          "indexed": false,
          "internalType": "uint256",
          "name": "amount",
          "type": "uint256"
        },
        {
          "indexed": false,
          "internalType": "uint256",
          "name": "releaseTime",
          "type": "uint256"
        }
      ],
      "name": "EmergencyWithdrawalInitiated",
      "type": "event"
    },
    {
      "anonymous": false,
      "inputs": [
        {
          "indexed": true,
          "internalType": "address",
          "name": "previousOwner",
          "type": "address"
        },
        {
          "indexed": true,
          "internalType": "address",
          "name": "newOwner",
          "type": "address"
        }
      ],
      "name": "OwnershipTransferred",
      "type": "event"
    },
    {
      "anonymous": false,
      "inputs": [
        {
          "indexed": true,
          "internalType": "uint256",
          "name": "sessionId",
          "type": "uint256"
        },
        {
          "indexed": true,
          "internalType": "address",
          "name": "recipient",
          "type": "address"
        },
        {
          "indexed": false,
          "internalType": "uint256",
          "name": "amount",
          "type": "uint256"
        }
      ],
      "name": "PlatformFeeDistributed",
      "type": "event"
    },
    {
      "anonymous": false,
      "inputs": [
        {
          "indexed": true,
          "internalType": "address",
          "name": "player",
          "type": "address"
        },
        {
          "indexed": false,
          "internalType": "uint256",
          "name": "sessionId",
          "type": "uint256"
        }
      ],
      "name": "PlayerJoined",
      "type": "event"
    },
    {
      "anonymous": false,
      "inputs": [
        {
          "indexed": true,
          "internalType": "uint256",
          "name": "sessionId",
          "type": "uint256"
        },
        {
          "indexed": false,
          "internalType": "address[]",
          "name": "winners",
          "type": "address[]"
        },
        {
          "indexed": false,
          "internalType": "uint256[]",
          "name": "prizeAmounts",
          "type": "uint256[]"
        }
      ],
      "name": "PrizesDistributed",
      "type": "event"
    },
    {
      "anonymous": false,
      "inputs": [
        {
          "indexed": true,
          "internalType": "uint256",
          "name": "sessionId",
          "type": "uint256"
        },
        {
          "indexed": false,
          "internalType": "uint256",
          "name": "startTime",
          "type": "uint256"
        }
      ],
      "name": "SessionStarted",
      "type": "event"
    },
    {
      "anonymous": false,
      "inputs": [
        {
          "indexed": true,
          "internalType": "address",
          "name": "recipient",
          "type": "address"
        },
        {
          "indexed": false,
          "internalType": "uint256",
          "name": "amount",
          "type": "uint256"
        }
      ],
      "name": "WithdrawalExecuted",
      "type": "event"
    },
    {
      "inputs": [],
      "name": "CHAINLINK_FEE",
      "outputs": [
        {
          "internalType": "uint256",
          "name": "",
          "type": "uint256"
        }
      ],
      "stateMutability": "view",
      "type": "function"
    },
    {
      "inputs": [],
      "name": "LINK_TOKEN",
      "outputs": [
        {
          "internalType": "contract IERC20",
          "name": "",
          "type": "address"
        }
      ],
      "stateMutability": "view",
      "type": "function"
    },
    {
      "inputs": [],
      "name": "MAX_PLAYERS",
      "outputs": [
        {
          "internalType": "uint256",
          "name": "",
          "type": "uint256"
        }
      ],
      "stateMutability": "view",
      "type": "function"
    },
    {
      "inputs": [],
      "name": "MIN_PLAYERS",
      "outputs": [
        {
          "internalType": "uint256",
          "name": "",
          "type": "uint256"
        }
      ],
      "stateMutability": "view",
      "type": "function"
    },
    {
      "inputs": [],
      "name": "MIN_SESSION_INTERVAL",
      "outputs": [
        {
          "internalType": "uint256",
          "name": "",
          "type": "uint256"
        }
      ],
      "stateMutability": "view",
      "type": "function"
    },
    {
      "inputs": [],
      "name": "PLATFORM_FEE_PERCENTAGE",
      "outputs": [
        {
          "internalType": "uint256",
          "name": "",
          "type": "uint256"
        }
      ],
      "stateMutability": "view",
      "type": "function"
    },
    {
      "inputs": [],
      "name": "USDC_TOKEN",
      "outputs": [
        {
          "internalType": "contract IERC20",
          "name": "",
          "type": "address"
        }
      ],
      "stateMutability": "view",
      "type": "function"
    },
    {
      "inputs": [],
      "name": "chainlinkFunctions",
      "outputs": [
        {
          "internalType": "contract IChainlinkFunctions",
          "name": "",
          "type": "address"
        }
      ],
      "stateMutability": "view",
      "type": "function"
    },
    {
      "inputs": [],
      "name": "chainlinkOracle",
      "outputs": [
        {
          "internalType": "address",
          "name": "",
          "type": "address"
        }
      ],
      "stateMutability": "view",
      "type": "function"
    },
    {
      "inputs": [],
      "name": "currentSessionPrizePool",
      "outputs": [
        {
          "internalType": "uint256",
          "name": "",
          "type": "uint256"
        }
      ],
      "stateMutability": "view",
      "type": "function"
    },
    {
      "inputs": [],
      "name": "distributePrizes",
      "outputs": [],
      "stateMutability": "nonpayable",
      "type": "function"
    },
    {
      "inputs": [],
      "name": "endSession",
      "outputs": [],
      "stateMutability": "nonpayable",
      "type": "function"
    },
    {
      "inputs": [],
      "name": "entryFee",
      "outputs": [
        {
          "internalType": "uint256",
          "name": "",
          "type": "uint256"
        }
      ],
      "stateMutability": "view",
      "type": "function"
    },
    {
      "inputs": [],
      "name": "executeWithdrawal",
      "outputs": [],
      "stateMutability": "nonpayable",
      "type": "function"
    },
    {
      "inputs": [
        {
          "internalType": "bytes32",
          "name": "requestId",
          "type": "bytes32"
        },
        {
          "internalType": "bytes",
          "name": "response",
          "type": "bytes"
        },
        {
          "internalType": "bytes",
          "name": "error",
          "type": "bytes"
        }
      ],
      "name": "fulfillOracleRequest",
      "outputs": [],
      "stateMutability": "nonpayable",
      "type": "function"
    },
    {
      "inputs": [],
      "name": "getContractUsdcBalance",
      "outputs": [
        {
          "internalType": "uint256",
          "name": "",
          "type": "uint256"
        }
      ],
      "stateMutability": "view",
      "type": "function"
    },
    {
      "inputs": [],
      "name": "getCurrentPlayers",
      "outputs": [
        {
          "internalType": "address[]",
          "name": "",
          "type": "address[]"
        }
      ],
      "stateMutability": "view",
      "type": "function"
    },
    {
      "inputs": [
        {
          "internalType": "address",
          "name": "account",
          "type": "address"
        }
      ],
      "name": "getPendingWithdrawal",
      "outputs": [
        {
          "internalType": "uint256",
          "name": "",
          "type": "uint256"
        }
      ],
      "stateMutability": "view",
      "type": "function"
    },
    {
      "inputs": [
        {
          "internalType": "address",
          "name": "player",
          "type": "address"
        }
      ],
      "name": "getPlayerScore",
      "outputs": [
        {
          "internalType": "uint256",
          "name": "",
          "type": "uint256"
        }
      ],
      "stateMutability": "view",
      "type": "function"
    },
    {
      "inputs": [
        {
          "internalType": "address",
          "name": "",
          "type": "address"
        }
      ],
      "name": "hasParticipated",
      "outputs": [
        {
          "internalType": "bool",
          "name": "",
          "type": "bool"
        }
      ],
      "stateMutability": "view",
      "type": "function"
    },
    {
      "inputs": [],
      "name": "initiateEmergencyWithdraw",
      "outputs": [],
      "stateMutability": "nonpayable",
      "type": "function"
    },
    {
      "inputs": [],
      "name": "isSessionActive",
      "outputs": [
        {
          "internalType": "bool",
          "name": "",
          "type": "bool"
        }
      ],
      "stateMutability": "view",
      "type": "function"
    },
    {
      "inputs": [],
      "name": "joinBattle",
      "outputs": [],
      "stateMutability": "nonpayable",
      "type": "function"
    },
    {
      "inputs": [],
      "name": "lastSessionTime",
      "outputs": [
        {
          "internalType": "uint256",
          "name": "",
          "type": "uint256"
        }
      ],
      "stateMutability": "view",
      "type": "function"
    },
    {
      "inputs": [
        {
          "internalType": "bytes",
          "name": "",
          "type": "bytes"
        },
        {
          "internalType": "bytes",
          "name": "report",
          "type": "bytes"
        }
      ],
      "name": "onReport",
      "outputs": [],
      "stateMutability": "nonpayable",
      "type": "function"
    },
    {
      "inputs": [],
      "name": "owner",
      "outputs": [
        {
          "internalType": "address",
          "name": "",
          "type": "address"
        }
      ],
      "stateMutability": "view",
      "type": "function"
    },
    {
      "inputs": [
        {
          "internalType": "address",
          "name": "",
          "type": "address"
        }
      ],
      "name": "pendingWithdrawals",
      "outputs": [
        {
          "internalType": "uint256",
          "name": "",
          "type": "uint256"
        }
      ],
      "stateMutability": "view",
      "type": "function"
    },
    {
      "inputs": [
        {
          "internalType": "address",
          "name": "",
          "type": "address"
        }
      ],
      "name": "playerScores",
      "outputs": [
        {
          "internalType": "uint256",
          "name": "",
          "type": "uint256"
        }
      ],
      "stateMutability": "view",
      "type": "function"
    },
    {
      "inputs": [
        {
          "internalType": "uint256",
          "name": "",
          "type": "uint256"
        }
      ],
      "name": "players",
      "outputs": [
        {
          "internalType": "address",
          "name": "",
          "type": "address"
        }
      ],
      "stateMutability": "view",
      "type": "function"
    },
    {
      "inputs": [],
      "name": "renounceOwnership",
      "outputs": [],
      "stateMutability": "nonpayable",
      "type": "function"
    },
    {
      "inputs": [
        {
          "internalType": "string",
          "name": "functionToCall",
          "type": "string"
        },
        {
          "internalType": "bytes",
          "name": "params",
          "type": "bytes"
        }
      ],
      "name": "sendChainlinkRequest",
      "outputs": [],
      "stateMutability": "nonpayable",
      "type": "function"
    },
    {
      "inputs": [],
      "name": "sessionCounter",
      "outputs": [
        {
          "internalType": "uint256",
          "name": "",
          "type": "uint256"
        }
      ],
      "stateMutability": "view",
      "type": "function"
    },
    {
      "inputs": [],
      "name": "sessionInterval",
      "outputs": [
        {
          "internalType": "uint256",
          "name": "",
          "type": "uint256"
        }
      ],
      "stateMutability": "view",
      "type": "function"
    },
    {
      "inputs": [
        {
          "internalType": "address",
          "name": "_newFunctions",
          "type": "address"
        }
      ],
      "name": "setChainlinkFunctions",
      "outputs": [],
      "stateMutability": "nonpayable",
      "type": "function"
    },
    {
      "inputs": [
        {
          "internalType": "address",
          "name": "_newOracle",
          "type": "address"
        }
      ],
      "name": "setChainlinkOracle",
      "outputs": [],
      "stateMutability": "nonpayable",
      "type": "function"
    },
    {
      "inputs": [
        {
          "internalType": "uint256",
          "name": "_newFee",
          "type": "uint256"
        }
      ],
      "name": "setEntryFee",
      "outputs": [],
      "stateMutability": "nonpayable",
      "type": "function"
    },
    {
      "inputs": [
        {
          "internalType": "uint256",
          "name": "_newInterval",
          "type": "uint256"
        }
      ],
      "name": "setSessionInterval",
      "outputs": [],
      "stateMutability": "nonpayable",
      "type": "function"
    },
    {
      "inputs": [
        {
          "internalType": "uint256",
          "name": "_newDelay",
          "type": "uint256"
        }
      ],
      "name": "setTimeLockDelay",
      "outputs": [],
      "stateMutability": "nonpayable",
      "type": "function"
    },
    {
      "inputs": [],
      "name": "startNewSession",
      "outputs": [],
      "stateMutability": "nonpayable",
      "type": "function"
    },
    {
      "inputs": [
        {
          "internalType": "address[]",
          "name": "playerAddresses",
          "type": "address[]"
        },
        {
          "internalType": "uint256[]",
          "name": "scores",
          "type": "uint256[]"
        }
      ],
      "name": "submitScores",
      "outputs": [],
      "stateMutability": "nonpayable",
      "type": "function"
    },
    {
      "inputs": [
        {
          "internalType": "bytes4",
          "name": "interfaceId",
          "type": "bytes4"
        }
      ],
      "name": "supportsInterface",
      "outputs": [
        {
          "internalType": "bool",
          "name": "",
          "type": "bool"
        }
      ],
      "stateMutability": "pure",
      "type": "function"
    },
    {
      "inputs": [],
      "name": "timeLockDelay",
      "outputs": [
        {
          "internalType": "uint256",
          "name": "",
          "type": "uint256"
        }
      ],
      "stateMutability": "view",
      "type": "function"
    },
    {
      "inputs": [],
      "name": "timeLockEnd",
      "outputs": [
        {
          "internalType": "uint256",
          "name": "",
          "type": "uint256"
        }
      ],
      "stateMutability": "view",
      "type": "function"
    },
    {
      "inputs": [
        {
          "internalType": "address",
          "name": "newOwner",
          "type": "address"
        }
      ],
      "name": "transferOwnership",
      "outputs": [],
      "stateMutability": "nonpayable",
      "type": "function"
    }
  ],
  "bytecode": "0x60c0346101c157601f61294c38819003918201601f191683019291906001600160401b038411838510176101c6578160c092849260409687528339810103126101c15761004b816101dc565b90610058602082016101dc565b916100648483016101dc565b92610071606084016101dc565b60a0608085015194015194600160005533156101a95760018054336001600160a01b03198083168217909355895192966001600160a01b0396939287929083167f8be0079c531659141344cd1fd0a4f28419497f9722a3daafe3b4186f6b6457e0600080a36202a30060095516908115801561019f575b6101905750608052831660a052821680610181575b50169060035416176003556102588110610170576004556005554260065560006007555161275b90816101f182396080518181816107ee01528181610c6a01528181610f20015281816118720152818161197901528181611e350152612622015260a0518181816113ca01526115e00152f35b82516355135d9f60e11b8152600490fd5b836002541617600255386100fd565b63dd28a68f60e01b8152600490fd5b50858316156100e8565b8651631e4fbdf760e01b815260006004820152602490fd5b600080fd5b634e487b7160e01b600052604160045260246000fd5b51906001600160a01b03821682036101c15756fe6080604052600436101561001257600080fd5b60003560e01c8063011e05d9146102cd57806301ffc9a7146102c857806302cac05c146102c3578063031a65f4146102be5780630688cf66146102b9578063072ea61c146102b457806315548232146102af5780631a7dd42a146102aa5780631d8b6431146102a557806336dc7bc0146102a05780633dddd0a51461029b578063412ddcb3146102965780634411b3eb1461029157806344b2dc851461028c57806362550ae114610237578063715018a6146102875780637a9b0412146102825780637ce52eb61461027d5780637ee8b2f814610214578063805f21321461027857806385f07bbe146102735780638bbc64461461026e5780638da5cb5b1461026957806397794bf414610264578063a82a76041461025f578063ac856cea1461025a578063b4fb3ee314610255578063c49a91fe14610250578063c87415961461024b578063cc64e2af14610246578063cf0902af14610241578063dc871a5c1461023c578063e085c53914610237578063e237a3fc14610232578063ea78cf991461022d578063eb770d0c14610228578063eedac3a614610223578063ef06e72c1461021e578063f2fde38b14610219578063f3f4370314610214578063f71d96cb1461020f578063f8bb1a5a1461020a578063fa45aa00146102055763fa5692741461020057600080fd5b611963565b61180e565b61176a565b611727565b610a06565b611638565b61160f565b6115ca565b6115a2565b611343565b6111fd565b610875565b6111b8565b61119a565b61117c565b61115f565b6110ea565b6110a8565b610ed0565b610e84565b610be0565b610bb7565b610b99565b610b7d565b610a70565b610971565b610913565b6108b2565b6107c2565b6107a6565b61057c565b61052e565b610510565b6104e7565b6104c9565b6104ad565b61048f565b61046c565b610449565b6103bf565b61032c565b6102e9565b60209060031901126102e45760043590565b600080fd5b346102e4576102f7366102d2565b6102ff611b34565b610307611b60565b610258811061031a576004556001600055005b6040516355135d9f60e11b8152600490fd5b346102e45760203660031901126102e45760043563ffffffff60e01b81168091036102e45760209063402f909960e11b8114908115610371575b506040519015158152f35b6301ffc9a760e01b14905038610366565b90815180825260208080930193019160005b8281106103a2575050505090565b83516001600160a01b031685529381019392810192600101610394565b346102e45760003660031901126102e45760405180600b5491828152602080910192600b600052600080516020612706833981519152916000905b828210610429576104258561041181890382611293565b604051918291602083526020830190610382565b0390f35b83546001600160a01b0316865294850194600193840193909101906103fa565b346102e45760003660031901126102e457602060ff600a54166040519015158152f35b346102e45760003660031901126102e457602060405167016345785d8a00008152f35b346102e45760003660031901126102e4576020600554604051908152f35b346102e45760003660031901126102e4576020604051600a8152f35b346102e45760003660031901126102e4576020600f54604051908152f35b346102e45760003660031901126102e4576002546040516001600160a01b039091168152602090f35b346102e45760003660031901126102e4576020600454604051908152f35b346102e45760003660031901126102e4576020600854604051908152f35b9181601f840112156102e4578235916001600160401b0383116102e4576020808501948460051b0101116102e457565b346102e4576040806003193601126102e4576004906001600160401b0382358181116102e4576105af903690850161054c565b9390916024359081116102e4576105c9903690830161054c565b916105d2611b83565b6105da611b60565b6105ed6105e9600a5460ff1690565b1590565b610797578286036107365785156106f35760005b868110610614576106126001600055565b005b6106516105e961064a61063061062b858c8b6119a8565b6119b8565b6001600160a01b03166000908152600c6020526040902090565b5460ff1690565b610696578061066360019286866119a8565b3561068f61067561062b848c8b6119a8565b6001600160a01b03166000908152600d6020526040902090565b5501610601565b855162461bcd60e51b815260208184018181526025918101919091527f506c61796572206e6f74207265676973746572656420696e207468697320736560408201526439b9b4b7b760d91b606082015281906080010390fd5b0390fd5b6106ef9060405191829162461bcd60e51b83528201606090602081526013602082015272139bc81c1b185e595c9cc81c1c9bdd9a591959606a1b60408201520190565b6106ef9060405191829162461bcd60e51b8352820160809060208152602b60208201527f506c617965722061646472657373657320616e642073636f726573206c656e6760408201526a0e8d040dad2e6dac2e8c6d60ab1b60608201520190565b604051630cd208c760e21b8152fd5b346102e45760003660031901126102e457602060405160648152f35b346102e45760003660031901126102e4576040516370a0823160e01b81523060048201526020816024817f00000000000000000000000000000000000000000000000000000000000000006001600160a01b03165afa801561085f57602091600091610832575b50604051908152f35b6108529150823d8411610858575b61084a8183611293565b8101906119c2565b38610829565b503d610840565b6119d1565b6001600160a01b038116036102e457565b346102e45760203660031901126102e45760043561089281610864565b60018060a01b0316600052600d6020526020604060002054604051908152f35b346102e457600080600319360112610910576108cc611b34565b600180546001600160a01b0319811690915581906001600160a01b03167f8be0079c531659141344cd1fd0a4f28419497f9722a3daafe3b4186f6b6457e08280a380f35b80fd5b346102e45760203660031901126102e45760043561093081610864565b610938611b34565b6001600160a01b0316801561095f576001600160601b0360a01b6003541617600355600080f35b60405163dd28a68f60e01b8152600490fd5b346102e45760003660031901126102e45761098a611b83565b610992611b60565b6006546004548101809111610a015742106109ef57600a5460ff81166109e2575b506001600b54106109d0576109c6611e17565b6106126001600055565b60405163c62eeb9960e01b8152600490fd5b60ff1916600a55386109b3565b60405163a170eb6360e01b8152600490fd5b6119dd565b346102e45760203660031901126102e457600435610a2381610864565b60018060a01b0316600052600e6020526020604060002054604051908152f35b9181601f840112156102e4578235916001600160401b0383116102e457602083818601950101116102e457565b346102e45760403660031901126102e4576001600160401b036004358181116102e457610aa1903690600401610a43565b50506024359081116102e457610abb903690600401610a43565b600354909190610adb906001600160a01b03165b6001600160a01b031690565b3303610b6b576000918291610af560405180938193611a0e565b039082305af1610b03611a1c565b9015610b0b57005b805115610b1a57805190602001fd5b60405162461bcd60e51b815260206004820152602360248201527f547269766961426174746c655f5f5265706f7274457865637574696f6e4661696044820152621b195960ea1b6064820152608490fd5b60405163c0e6d23b60e01b8152600490fd5b346102e45760003660031901126102e457602060405160018152f35b346102e45760003660031901126102e4576020600954604051908152f35b346102e45760003660031901126102e4576001546040516001600160a01b039091168152602090f35b346102e45760008060031936011261091057610bfa611b60565b600a5460ff168080610e66575b80610e5a575b80610e29575b15610e105750610c2860ff19600a5416600a55565b610c30611e17565b610c3861205c565b336000908152600c60205260409020610c509061064a565b610d87575b6040516370a0823160e01b81523360048201527f0000000000000000000000000000000000000000000000000000000000000000906020816024816001600160a01b0386165afa90811561085f578391610d68575b50600554809110610d5657610cc29130903390612115565b610cd8610cd3600554600f54611a01565b600f55565b336000908152600c60205260409020610cf890805460ff19166001179055565b610d0133611a4c565b336000908152600d6020526040902081905560075460405190815233907f3330a6773675f31f62070870f40379f8c6d42e3761410011a4dfc42b18043d2f9080602081015b0390a2610d536001600055565b80f35b6040516303f8b56760e61b8152600490fd5b610d81915060203d6020116108585761084a8183611293565b38610caa565b8081600b54905b818110610dd1575b5050610dbf57336000908152600c60205260409020610dba905b805460ff19169055565b610c55565b60405163050fc8e360e41b8152600490fd5b610acf610df7610de083611702565b9054339360039290921b1c6001600160a01b031690565b14610e0457600101610d8e565b50505060013880610d96565b610c3857610e1c61203d565b610e2461205c565b610c38565b50610e4a610e356116db565b905460039190911b1c6001600160a01b031690565b6001600160a01b03163314610c13565b506001600b5414610c0d565b50336000908152600c60205260409020610e7f9061064a565b610c07565b346102e45760203660031901126102e457600435610ea181610864565b610ea9611b34565b6001600160a01b0316801561095f576001600160601b0360a01b6002541617600255600080f35b346102e45760008060031936011261091057610eea611b34565b610ef2611b60565b60085442811161108e57506040516370a0823160e01b81523060048201526020816024816001600160a01b037f0000000000000000000000000000000000000000000000000000000000000000165afa90811561085f57829161106f575b50801561105d57600154610f82906001600160a01b03165b6001600160a01b03166000908152600e6020526040902090565b54610ff257610f9b610f9660095442611a01565b600855565b6001548190610fb2906001600160a01b0316610f68565b5560085460408051928352602083019190915233917f73fe14d80afdfd5946f00733b5813bbdc0fce376a904c501b8b95daf37d588939181908101610d46565b60405162461bcd60e51b815260206004820152603a60248201527f50726576696f7573207769746864726177616c2070656e64696e672e2045786560448201527f63757465206f72207761697420666f722074696d656c6f636b2e0000000000006064820152608490fd5b60405163c2e84de360e01b8152600490fd5b611088915060203d6020116108585761084a8183611293565b38610f50565b60405163517174ad60e01b81526004810191909152602490fd5b346102e45760203660031901126102e4576004356110c581610864565b60018060a01b0316600052600c602052602060ff604060002054166040519015158152f35b346102e4576110f8366102d2565b611100611b34565b801561110b57600955005b60405162461bcd60e51b815260206004820152602660248201527f54696d65206c6f636b2064656c6179206d75737420626520677265617465722060448201526507468616e20360d41b6064820152608490fd5b346102e45760003660031901126102e45760206040516102588152f35b346102e45760003660031901126102e4576020600754604051908152f35b346102e45760003660031901126102e4576020600654604051908152f35b346102e45760003660031901126102e4576111d1611b34565b60ff600a54166111eb576111e361203d565b61061261205c565b60405163e166734f60e01b8152600490fd5b346102e45760008060031936011261091057611217611b34565b61121f611b60565b600a5460ff81161561124b576001600b54106109d05760ff1916600a55611244611e17565b6001815580f35b604051630cd208c760e21b8152600490fd5b634e487b7160e01b600052604160045260246000fd5b608081019081106001600160401b0382111761128e57604052565b61125d565b90601f801991011681019081106001600160401b0382111761128e57604052565b60405190604082018281106001600160401b0382111761128e57604052565b6001600160401b03811161128e57601f01601f191660200190565b9291926112fa826112d3565b916113086040519384611293565b8294818452818301116102e4578281602093846000960137010152565b9080601f830112156102e457816020611340933591016112ee565b90565b346102e4576040806003193601126102e45760048035916001600160401b03928381116102e457366023820112156102e45761138890369060248186013591016112ee565b926024359081116102e4576113a09036908401611325565b6113a8611b34565b81516370a0823160e01b815230818501908152602094916001600160a01b03917f00000000000000000000000000000000000000000000000000000000000000009190879082908190830103818686165afa801561085f5767016345785d8a000091600091611585575b501061153a5760035482166001600160a01b03161561152a57600254611440906001600160a01b0316610acf565b9182161561152a579161145861149e9492879461216d565b60025461146d906001600160a01b0316610acf565b6003549091906000906001600160a01b031693875196879586948593630d6b1e6760e01b8552309246928601611ade565b03925af192831561085f576000936114e7575b50507f23da7b6fe0eb3a14d7d1b16197420f81080636bb557ee1029a6e79e3a50ff61d9051806114e2339582611b23565b0390a3005b7f23da7b6fe0eb3a14d7d1b16197420f81080636bb557ee1029a6e79e3a50ff61d929350908161152292903d106108585761084a8183611293565b9190386114b1565b845163dd28a68f60e01b81528390fd5b845162461bcd60e51b815260208185018181526019918101919091527f496e73756666696369656e74204c494e4b2062616c616e636500000000000000604082015281906060010390fd5b61159c9150883d8a116108585761084a8183611293565b38611412565b346102e4576115b0366102d2565b6115b8611b34565b6115c0611b60565b6005556001600055005b346102e45760003660031901126102e4576040517f00000000000000000000000000000000000000000000000000000000000000006001600160a01b03168152602090f35b346102e45760003660031901126102e4576003546040516001600160a01b039091168152602090f35b346102e45760203660031901126102e45760043561165581610864565b61165d611b34565b6001600160a01b039081169081156116ac57600154826001600160601b0360a01b821617600155167f8be0079c531659141344cd1fd0a4f28419497f9722a3daafe3b4186f6b6457e0600080a3005b604051631e4fbdf760e01b815260006004820152602490fd5b634e487b7160e01b600052603260045260246000fd5b600b54156116fd57600b60005260008051602061270683398151915290600090565b6116c5565b600b548110156116fd57600b6000526000805160206127068339815191520190600090565b346102e457611735366102d2565b600b548110156102e457600b60005260008051602061270683398151915201546040516001600160a01b039091168152602090f35b346102e45760603660031901126102e4576001600160401b036024358181116102e45761179b903690600401611325565b906044359081116102e4576117f86117d87fa2d30a204aa38284240b861a692d62ea13e671dbeeacc8b7235060c8fccf9275923690600401611325565b926117e1611b83565b611809604051928392604084526040840190611a9e565b828103602084015260043595611a9e565b0390a2005b346102e45760008060031936011261091057611828611b34565b611830611b60565b6001546001600160a01b03166000818152600e60205260409020549081156119515760085480421061108e57506040516370a0823160e01b81523060048201527f0000000000000000000000000000000000000000000000000000000000000000906020816024816001600160a01b0386165afa90811561085f578591611932575b50831161105d576118c49183916121b4565b60015482906118db906001600160a01b0316610f68565b556118e66000600855565b6001547f1131c2afe9ce72c59360d085f89bfdd088fcf4a3c93eec6cc5ff42f5d6b0801f90610d4690611921906001600160a01b0316610acf565b604051938452929081906020820190565b61194b915060203d6020116108585761084a8183611293565b386118b2565b60405163e3872c4b60e01b8152600490fd5b346102e45760003660031901126102e4576040517f00000000000000000000000000000000000000000000000000000000000000006001600160a01b03168152602090f35b91908110156116fd5760051b0190565b3561134081610864565b908160209103126102e4575190565b6040513d6000823e3d90fd5b634e487b7160e01b600052601160045260246000fd5b9060018201809211610a0157565b91908201809211610a0157565b908092918237016000815290565b3d15611a47573d90611a2d826112d3565b91611a3b6040519384611293565b82523d6000602084013e565b606090565b600b54600160401b81101561128e576001810180600b558110156116fd57600b6000526000805160206127068339815191520180546001600160a01b0319166001600160a01b03909216919091179055565b919082519283825260005b848110611aca575050826000602080949584010152601f8019910116010190565b602081830181015184830182015201611aa9565b906000939594611b0760c09460018060a01b03809416855260e0602086015260e0850190611a9e565b9685604085015285606085015260808401521660a08201520152565b906020611340928181520190611a9e565b6001546001600160a01b03163303611b4857565b60405163118cdaa760e01b8152336004820152602490fd5b600260005414611b71576002600055565b604051633ee5aeb560e01b8152600490fd5b600154336001600160a01b0391821614159081611ba2575b50610b6b57565b90506003541633141538611b9b565b600019810191908211610a0157565b91908203918211610a0157565b15611bd457565b60405162461bcd60e51b815260206004820152601760248201527f4e6f207072697a6520706f6f6c20617661696c61626c650000000000000000006044820152606490fd5b90600a820291808304600a1490151715610a0157565b90603c820291808304603c1490151715610a0157565b90601e820291808304601e1490151715610a0157565b90602882029180830460281490151715610a0157565b15611c7857565b60405162461bcd60e51b815260206004820152601060248201526f139bc81dda5b9b995c9cc8199bdd5b9960821b6044820152606490fd5b90611cc390604083526040830190610382565b81810360209283015282518082529082019282019160005b828110611ce9575050505090565b835185529381019392810192600101611cdb565b6001600160401b03811161128e5760051b60200190565b604051602081018181106001600160401b0382111761128e5760405260008152906000368137565b90611d4682611cfd565b611d536040519182611293565b8281528092611d64601f1991611cfd565b0190602036910137565b8051906001600160401b03821161128e57600160401b821161128e57600b5482600b55808310611de1575b50600b6000526020908101906000805160206127068339815191529060005b848110611dc6575050505050565b83516001600160a01b03168382015592810192600101611db8565b6000600b6000528360008051602061270683398151915292830192015b828110611e0c575050611d99565b818155600101611dfe565b6040516370a0823160e01b81523060048201526001600160a01b03907f0000000000000000000000000000000000000000000000000000000000000000906020816024818587165afa90811561085f5760009161201e575b50600180546001600160a01b03166000818152600e60205260409020549194909290918082111561201557611ea391611bc0565b600f54908082101561200d5750915b611ebd831515611bcd565b611eda611ed3611ecc85611c19565b6064900490565b8094611bc0565b9383611fb9575b505050507fec92dccf4a03653bc1a3d85019574bf62a659c47575779a889806684783b9e5c611f26611f1161229e565b92611f1e84511515611c71565b8351906124ab565b611f3081846125b1565b60075492611f4360405192839283611cb0565b0390a26000815b611f7c575b5050611f61611f5c611d14565b611d6e565b611f6b6000600f55565b611f7a60ff19600a5416600a55565b565b600b54811015611fb4578181611f9b610db0610630610e358596611702565b6000611fac610675610e3584611702565b550190611f4a565b611f4f565b611fc49184916121b4565b600754600154604051938452919091166001600160a01b0316917f35793633787654ca44ab108cc4b3797a63c4d8e03acba71c8b48f7d4d984a08690602090a338808080611ee1565b905091611eb2565b50506000611ea3565b612037915060203d6020116108585761084a8183611293565b38611e6f565b60075415611f7a576006546004548101809111610a015742106109ef57565b6007546000198114610a01576001809101600755600160ff19600a541617600a5561208642600655565b6120906000600f55565b600080825b6120d9575b5050506120a8611f5c611d14565b6007546040514281527fce6cbe3431d9ec9ac1a82a77a80bb9120b0250307afb3ed08873ea84c52b70c090602090a2565b600b548210156121105782826120f8610db0610630610e358597611702565b82612108610675610e3584611702565b550191612095565b61209a565b6040516323b872dd60e01b60208201526001600160a01b03928316602482015292909116604483015260648083019390935291815260a08101918183106001600160401b0384111761128e57611f7a926040526126a9565b60405163a9059cbb60e01b60208201526001600160a01b03909216602483015267016345785d8a00006044808401919091528252611f7a91906121af82611273565b6126a9565b60405163a9059cbb60e01b60208201526001600160a01b039092166024830152604480830193909352918152611f7a916121af82611273565b906121f782611cfd565b60406122066040519283611293565b8382528193612217601f1991611cfd565b01906000805b83811061222b575050505050565b825190838201918083106001600160401b0384111761128e57602092855283815282848183015282880101520161221d565b8051156116fd5760200190565b8051600110156116fd5760400190565b8051600210156116fd5760600190565b80518210156116fd5760209160051b010190565b600b546122aa816121ed565b9060005b8181106124515750508051600181818093111561241057506000905b612340575b5081518060031060001461233b575060035b6122ea81611d3c565b9260005b8281106122fc575050505090565b8061233561231c61230e87948661228a565b51516001600160a01b031690565b612326838961228a565b6001600160a01b039091169052565b016122ee565b6122e1565b61234a8351611bb1565b81101561240b57816000815b612365575b50809101906122ca565b612378612373848751611bc0565b611bb1565b81101561240657819060208061238e838961228a565b510151906123a461239e846119f3565b8961228a565b510151116123b4575b0181612356565b6124006123c1828861228a565b516123ce61239e846119f3565b516123d9848a61228a565b526123e4838961228a565b506123ee836119f3565b906123f9828a61228a565b528761228a565b506123ad565b61235b565b6122cf565b61241990611d3c565b926000915b612429575b50505090565b805182101561244c57828261244561231c61230e84968661228a565b019161241e565b612423565b80612460610e35600193611702565b61246f610675610e3584611702565b5461248a61247b6112b4565b6001600160a01b039093168352565b6020820152612499828661228a565b526124a4818561228a565b50016122ae565b6124b482611d3c565b91600181036124cb57506124c78261225d565b5290565b6002810361253b575061252361251a826124ea611ecc61253295611c2f565b6124f38661225d565b52612500611ecc82611c5b565b6125098661226a565b526125138561225d565b5190611bc0565b6125138461226a565b61252c8361225d565b51611a01565b6124c78261225d565b60031115612547575090565b6125236125a861259f83612560611ecc61253296611c2f565b6125698761225d565b52612576611ecc82611c45565b61257f8761226a565b5261258c611ecc82611c19565b6125958761227a565b526125138661225d565b6125138561226a565b6125138461227a565b91909180518351036126515760005b815181101561264b576125e6610acf6125d9838561228a565b516001600160a01b031690565b1561095f57806125f86001928661228a565b51612604575b016125c0565b6126466126146125d9838661228a565b61261e838861228a565b51907f00000000000000000000000000000000000000000000000000000000000000006121b4565b6125fe565b50509050565b60405162461bcd60e51b815260206004820152602a60248201527f57696e6e65727320616e6420616d6f756e747320617272617973206c656e67746044820152690d040dad2e6dac2e8c6d60b31b6064820152608490fd5b906000602091828151910182855af1156119d1576000513d6126fc57506001600160a01b0381163b155b6126da5750565b604051635274afe760e01b81526001600160a01b039091166004820152602490fd5b600114156126d356fe0175b7a638427703f0dbe7bb9bbf987a2551717b34e79f33b5b1008d1fa01db9a264697066735822122089a2706476cf93db1e7ee76e3a7f25816fe4fa26901626d3f5aff50971642c7c64736f6c63430008190033",
  "linkReferences": {},
  "deployedLinkReferences": {}
}